{
  "_format": "hh-sol-artifact-1",
  "contractName": "AgentRegistry",
  "sourceName": "src/AgentRegistry.sol",
  "abi": [
    {
      "inputs": [],
      "stateMutability": "nonpayable",
      "type": "constructor"
    },
    {
      "inputs": [],
      "name": "AgentInactive",
      "type": "error"
    },
    {
      "inputs": [],
      "name": "BadOracleSignature",
      "type": "error"
    },
    {
      "inputs": [],
      "name": "DurationOverflow",
      "type": "error"
    },
    {
      "inputs": [],
      "name": "EmptyCID",
      "type": "error"
    },
    {
      "inputs": [],
      "name": "EmptyEciesKey",
      "type": "error"
    },
    {
      "inputs": [],
      "name": "EmptySealedKey",
      "type": "error"
    },
    {
      "inputs": [],
      "name": "InvalidTokenId",
      "type": "error"
    },
    {
      "inputs": [],
      "name": "MaxSkillsReached",
      "type": "error"
    },
    {
      "inputs": [],
      "name": "NotAgentOwner",
      "type": "error"
    },
    {
      "inputs": [],
      "name": "OracleNotSet",
      "type": "error"
    },
    {
      "inputs": [],
      "name": "SelfTransfer",
      "type": "error"
    },
    {
      "inputs": [],
      "name": "SkillNotFound",
      "type": "error"
    },
    {
      "inputs": [],
      "name": "SkillsTooMany",
      "type": "error"
    },
    {
      "inputs": [],
      "name": "StaleRoot",
      "type": "error"
    },
    {
      "inputs": [],
      "name": "TooManyInitialSkills",
      "type": "error"
    },
    {
      "inputs": [],
      "name": "UnauthorizedEscrow",
      "type": "error"
    },
    {
      "inputs": [],
      "name": "ZeroAddress",
      "type": "error"
    },
    {
      "inputs": [],
      "name": "ZeroRoot",
      "type": "error"
    },
    {
      "inputs": [],
      "name": "ZeroSkill",
      "type": "error"
    },
    {
      "anonymous": false,
      "inputs": [
        {
          "indexed": true,
          "internalType": "uint256",
          "name": "originalId",
          "type": "uint256"
        },
        {
          "indexed": true,
          "internalType": "uint256",
          "name": "newId",
          "type": "uint256"
        },
        {
          "indexed": true,
          "internalType": "address",
          "name": "newOwner",
          "type": "address"
        },
        {
          "indexed": false,
          "internalType": "bytes32",
          "name": "newHash",
          "type": "bytes32"
        }
      ],
      "name": "AgentCloned",
      "type": "event"
    },
    {
      "anonymous": false,
      "inputs": [
        {
          "indexed": true,
          "internalType": "uint256",
          "name": "agentId",
          "type": "uint256"
        },
        {
          "indexed": true,
          "internalType": "address",
          "name": "owner",
          "type": "address"
        },
        {
          "indexed": false,
          "internalType": "bytes32",
          "name": "capabilityHash",
          "type": "bytes32"
        },
        {
          "indexed": false,
          "internalType": "bytes32",
          "name": "profileHash",
          "type": "bytes32"
        },
        {
          "indexed": false,
          "internalType": "address",
          "name": "agentWallet",
          "type": "address"
        },
        {
          "indexed": false,
          "internalType": "uint32",
          "name": "defaultRate",
          "type": "uint32"
        }
      ],
      "name": "AgentMinted",
      "type": "event"
    },
    {
      "anonymous": false,
      "inputs": [
        {
          "indexed": true,
          "internalType": "uint256",
          "name": "agentId",
          "type": "uint256"
        },
        {
          "indexed": false,
          "internalType": "bool",
          "name": "isActive",
          "type": "bool"
        }
      ],
      "name": "AgentToggled",
      "type": "event"
    },
    {
      "anonymous": false,
      "inputs": [
        {
          "indexed": true,
          "internalType": "uint256",
          "name": "agentId",
          "type": "uint256"
        },
        {
          "indexed": false,
          "internalType": "bytes32",
          "name": "newHash",
          "type": "bytes32"
        },
        {
          "indexed": false,
          "internalType": "uint16",
          "name": "newVersion",
          "type": "uint16"
        }
      ],
      "name": "CapabilityUpdated",
      "type": "event"
    },
    {
      "anonymous": false,
      "inputs": [
        {
          "indexed": true,
          "internalType": "address",
          "name": "user",
          "type": "address"
        },
        {
          "indexed": true,
          "internalType": "address",
          "name": "assistant",
          "type": "address"
        }
      ],
      "name": "DelegateAccessSet",
      "type": "event"
    },
    {
      "anonymous": false,
      "inputs": [
        {
          "indexed": true,
          "internalType": "address",
          "name": "escrow",
          "type": "address"
        },
        {
          "indexed": false,
          "internalType": "bool",
          "name": "authorized",
          "type": "bool"
        }
      ],
      "name": "EscrowAuthorized",
      "type": "event"
    },
    {
      "anonymous": false,
      "inputs": [
        {
          "indexed": true,
          "internalType": "address",
          "name": "oldOracle",
          "type": "address"
        },
        {
          "indexed": true,
          "internalType": "address",
          "name": "newOracle",
          "type": "address"
        }
      ],
      "name": "OracleSet",
      "type": "event"
    },
    {
      "anonymous": false,
      "inputs": [
        {
          "indexed": true,
          "internalType": "uint256",
          "name": "agentId",
          "type": "uint256"
        },
        {
          "indexed": false,
          "internalType": "uint16",
          "name": "winRate",
          "type": "uint16"
        },
        {
          "indexed": false,
          "internalType": "uint64",
          "name": "jobsCompleted",
          "type": "uint64"
        },
        {
          "indexed": false,
          "internalType": "uint64",
          "name": "jobsAttempted",
          "type": "uint64"
        }
      ],
      "name": "OverallScoreUpdated",
      "type": "event"
    },
    {
      "anonymous": false,
      "inputs": [
        {
          "indexed": true,
          "internalType": "address",
          "name": "previousOwner",
          "type": "address"
        },
        {
          "indexed": true,
          "internalType": "address",
          "name": "newOwner",
          "type": "address"
        }
      ],
      "name": "OwnershipTransferStarted",
      "type": "event"
    },
    {
      "anonymous": false,
      "inputs": [
        {
          "indexed": true,
          "internalType": "address",
          "name": "previousOwner",
          "type": "address"
        },
        {
          "indexed": true,
          "internalType": "address",
          "name": "newOwner",
          "type": "address"
        }
      ],
      "name": "OwnershipTransferred",
      "type": "event"
    },
    {
      "anonymous": false,
      "inputs": [
        {
          "indexed": false,
          "internalType": "address",
          "name": "account",
          "type": "address"
        }
      ],
      "name": "Paused",
      "type": "event"
    },
    {
      "anonymous": false,
      "inputs": [
        {
          "indexed": true,
          "internalType": "uint256",
          "name": "agentId",
          "type": "uint256"
        },
        {
          "indexed": false,
          "internalType": "bytes32",
          "name": "newHash",
          "type": "bytes32"
        }
      ],
      "name": "ProfileUpdated",
      "type": "event"
    },
    {
      "anonymous": false,
      "inputs": [
        {
          "indexed": true,
          "internalType": "uint256",
          "name": "agentId",
          "type": "uint256"
        },
        {
          "indexed": true,
          "internalType": "address",
          "name": "to",
          "type": "address"
        },
        {
          "indexed": false,
          "internalType": "uint16",
          "name": "version",
          "type": "uint16"
        },
        {
          "indexed": false,
          "internalType": "bytes",
          "name": "sealedKey",
          "type": "bytes"
        }
      ],
      "name": "SealedKeyPublished",
      "type": "event"
    },
    {
      "anonymous": false,
      "inputs": [
        {
          "indexed": true,
          "internalType": "uint256",
          "name": "agentId",
          "type": "uint256"
        },
        {
          "indexed": true,
          "internalType": "address",
          "name": "from",
          "type": "address"
        },
        {
          "indexed": true,
          "internalType": "address",
          "name": "to",
          "type": "address"
        },
        {
          "indexed": false,
          "internalType": "bytes32",
          "name": "oldHash",
          "type": "bytes32"
        },
        {
          "indexed": false,
          "internalType": "bytes32",
          "name": "newHash",
          "type": "bytes32"
        },
        {
          "indexed": false,
          "internalType": "uint16",
          "name": "newVersion",
          "type": "uint16"
        }
      ],
      "name": "SealedTransfer",
      "type": "event"
    },
    {
      "anonymous": false,
      "inputs": [
        {
          "indexed": true,
          "internalType": "uint256",
          "name": "agentId",
          "type": "uint256"
        },
        {
          "indexed": true,
          "internalType": "bytes32",
          "name": "skillId",
          "type": "bytes32"
        }
      ],
      "name": "SkillAdded",
      "type": "event"
    },
    {
      "anonymous": false,
      "inputs": [
        {
          "indexed": true,
          "internalType": "uint256",
          "name": "agentId",
          "type": "uint256"
        },
        {
          "indexed": true,
          "internalType": "bytes32",
          "name": "skillId",
          "type": "bytes32"
        }
      ],
      "name": "SkillRemoved",
      "type": "event"
    },
    {
      "anonymous": false,
      "inputs": [
        {
          "indexed": true,
          "internalType": "uint256",
          "name": "agentId",
          "type": "uint256"
        },
        {
          "indexed": true,
          "internalType": "bytes32",
          "name": "skillId",
          "type": "bytes32"
        },
        {
          "indexed": false,
          "internalType": "uint16",
          "name": "scoreBps",
          "type": "uint16"
        },
        {
          "indexed": false,
          "internalType": "uint64",
          "name": "jobsCompleted",
          "type": "uint64"
        },
        {
          "indexed": false,
          "internalType": "uint64",
          "name": "jobsAttempted",
          "type": "uint64"
        }
      ],
      "name": "SkillReputationUpdated",
      "type": "event"
    },
    {
      "anonymous": false,
      "inputs": [
        {
          "indexed": false,
          "internalType": "address",
          "name": "account",
          "type": "address"
        }
      ],
      "name": "Unpaused",
      "type": "event"
    },
    {
      "anonymous": false,
      "inputs": [
        {
          "indexed": true,
          "internalType": "uint256",
          "name": "agentId",
          "type": "uint256"
        },
        {
          "indexed": true,
          "internalType": "address",
          "name": "executor",
          "type": "address"
        },
        {
          "indexed": false,
          "internalType": "uint48",
          "name": "expiresAt",
          "type": "uint48"
        },
        {
          "indexed": false,
          "internalType": "bytes32",
          "name": "permissionsHash",
          "type": "bytes32"
        }
      ],
      "name": "UsageAuthorized",
      "type": "event"
    },
    {
      "anonymous": false,
      "inputs": [
        {
          "indexed": true,
          "internalType": "uint256",
          "name": "agentId",
          "type": "uint256"
        },
        {
          "indexed": true,
          "internalType": "address",
          "name": "executor",
          "type": "address"
        }
      ],
      "name": "UsageRevoked",
      "type": "event"
    },
    {
      "inputs": [],
      "name": "DEFAULT_WIN_RATE_BPS",
      "outputs": [
        {
          "internalType": "uint16",
          "name": "",
          "type": "uint16"
        }
      ],
      "stateMutability": "view",
      "type": "function"
    },
    {
      "inputs": [],
      "name": "MAX_INITIAL_SKILLS",
      "outputs": [
        {
          "internalType": "uint256",
          "name": "",
          "type": "uint256"
        }
      ],
      "stateMutability": "view",
      "type": "function"
    },
    {
      "inputs": [],
      "name": "MAX_SKILLS_PER_AGENT",
      "outputs": [
        {
          "internalType": "uint256",
          "name": "",
          "type": "uint256"
        }
      ],
      "stateMutability": "view",
      "type": "function"
    },
    {
      "inputs": [],
      "name": "acceptOwnership",
      "outputs": [],
      "stateMutability": "nonpayable",
      "type": "function"
    },
    {
      "inputs": [
        {
          "internalType": "address",
          "name": "escrow",
          "type": "address"
        }
      ],
      "name": "addEscrowContract",
      "outputs": [],
      "stateMutability": "nonpayable",
      "type": "function"
    },
    {
      "inputs": [
        {
          "internalType": "uint256",
          "name": "agentId",
          "type": "uint256"
        },
        {
          "internalType": "bytes32",
          "name": "skillId",
          "type": "bytes32"
        }
      ],
      "name": "addSkill",
      "outputs": [],
      "stateMutability": "nonpayable",
      "type": "function"
    },
    {
      "inputs": [
        {
          "internalType": "uint256",
          "name": "agentId",
          "type": "uint256"
        }
      ],
      "name": "agentSkillCount",
      "outputs": [
        {
          "internalType": "uint256",
          "name": "",
          "type": "uint256"
        }
      ],
      "stateMutability": "view",
      "type": "function"
    },
    {
      "inputs": [
        {
          "internalType": "uint256",
          "name": "",
          "type": "uint256"
        },
        {
          "internalType": "uint256",
          "name": "",
          "type": "uint256"
        }
      ],
      "name": "agentSkills",
      "outputs": [
        {
          "internalType": "bytes32",
          "name": "",
          "type": "bytes32"
        }
      ],
      "stateMutability": "view",
      "type": "function"
    },
    {
      "inputs": [
        {
          "internalType": "uint256",
          "name": "",
          "type": "uint256"
        }
      ],
      "name": "agents",
      "outputs": [
        {
          "internalType": "address",
          "name": "owner",
          "type": "address"
        },
        {
          "internalType": "uint48",
          "name": "createdAt",
          "type": "uint48"
        },
        {
          "internalType": "uint16",
          "name": "winRate",
          "type": "uint16"
        },
        {
          "internalType": "uint16",
          "name": "version",
          "type": "uint16"
        },
        {
          "internalType": "bool",
          "name": "isActive",
          "type": "bool"
        },
        {
          "internalType": "bytes32",
          "name": "capabilityHash",
          "type": "bytes32"
        },
        {
          "internalType": "bytes32",
          "name": "profileHash",
          "type": "bytes32"
        },
        {
          "internalType": "address",
          "name": "agentWallet",
          "type": "address"
        },
        {
          "internalType": "uint64",
          "name": "totalJobsCompleted",
          "type": "uint64"
        },
        {
          "internalType": "uint32",
          "name": "defaultRate",
          "type": "uint32"
        },
        {
          "internalType": "uint64",
          "name": "totalJobsAttempted",
          "type": "uint64"
        },
        {
          "internalType": "uint128",
          "name": "totalEarningsWei",
          "type": "uint128"
        },
        {
          "internalType": "uint48",
          "name": "updatedAt",
          "type": "uint48"
        }
      ],
      "stateMutability": "view",
      "type": "function"
    },
    {
      "inputs": [
        {
          "internalType": "uint256",
          "name": "agentId",
          "type": "uint256"
        },
        {
          "internalType": "address",
          "name": "executor",
          "type": "address"
        },
        {
          "internalType": "uint48",
          "name": "duration",
          "type": "uint48"
        },
        {
          "internalType": "bytes32",
          "name": "permissionsHash",
          "type": "bytes32"
        }
      ],
      "name": "authorizeUsage",
      "outputs": [],
      "stateMutability": "nonpayable",
      "type": "function"
    },
    {
      "inputs": [
        {
          "internalType": "address",
          "name": "",
          "type": "address"
        }
      ],
      "name": "authorizedEscrows",
      "outputs": [
        {
          "internalType": "bool",
          "name": "",
          "type": "bool"
        }
      ],
      "stateMutability": "view",
      "type": "function"
    },
    {
      "inputs": [
        {
          "internalType": "uint256",
          "name": "agentId",
          "type": "uint256"
        }
      ],
      "name": "authorizedUsersOf",
      "outputs": [
        {
          "internalType": "address[]",
          "name": "",
          "type": "address[]"
        }
      ],
      "stateMutability": "view",
      "type": "function"
    },
    {
      "inputs": [
        {
          "internalType": "address",
          "name": "owner",
          "type": "address"
        }
      ],
      "name": "balanceOf",
      "outputs": [
        {
          "internalType": "uint256",
          "name": "",
          "type": "uint256"
        }
      ],
      "stateMutability": "view",
      "type": "function"
    },
    {
      "inputs": [
        {
          "internalType": "address",
          "name": "assistant",
          "type": "address"
        }
      ],
      "name": "delegateAccess",
      "outputs": [],
      "stateMutability": "nonpayable",
      "type": "function"
    },
    {
      "inputs": [
        {
          "internalType": "uint256",
          "name": "",
          "type": "uint256"
        }
      ],
      "name": "eciesPublicKey",
      "outputs": [
        {
          "internalType": "bytes",
          "name": "",
          "type": "bytes"
        }
      ],
      "stateMutability": "view",
      "type": "function"
    },
    {
      "inputs": [
        {
          "internalType": "uint256",
          "name": "agentId",
          "type": "uint256"
        }
      ],
      "name": "getAgentProfile",
      "outputs": [
        {
          "components": [
            {
              "internalType": "address",
              "name": "owner",
              "type": "address"
            },
            {
              "internalType": "uint48",
              "name": "createdAt",
              "type": "uint48"
            },
            {
              "internalType": "uint16",
              "name": "winRate",
              "type": "uint16"
            },
            {
              "internalType": "uint16",
              "name": "version",
              "type": "uint16"
            },
            {
              "internalType": "bool",
              "name": "isActive",
              "type": "bool"
            },
            {
              "internalType": "bytes32",
              "name": "capabilityHash",
              "type": "bytes32"
            },
            {
              "internalType": "bytes32",
              "name": "profileHash",
              "type": "bytes32"
            },
            {
              "internalType": "address",
              "name": "agentWallet",
              "type": "address"
            },
            {
              "internalType": "uint64",
              "name": "totalJobsCompleted",
              "type": "uint64"
            },
            {
              "internalType": "uint32",
              "name": "defaultRate",
              "type": "uint32"
            },
            {
              "internalType": "uint64",
              "name": "totalJobsAttempted",
              "type": "uint64"
            },
            {
              "internalType": "uint128",
              "name": "totalEarningsWei",
              "type": "uint128"
            },
            {
              "internalType": "uint48",
              "name": "updatedAt",
              "type": "uint48"
            }
          ],
          "internalType": "struct AgentRegistry.AgentProfile",
          "name": "",
          "type": "tuple"
        }
      ],
      "stateMutability": "view",
      "type": "function"
    },
    {
      "inputs": [
        {
          "internalType": "uint256",
          "name": "agentId",
          "type": "uint256"
        }
      ],
      "name": "getAgentSkills",
      "outputs": [
        {
          "internalType": "bytes32[]",
          "name": "",
          "type": "bytes32[]"
        }
      ],
      "stateMutability": "view",
      "type": "function"
    },
    {
      "inputs": [
        {
          "internalType": "uint256",
          "name": "agentId",
          "type": "uint256"
        },
        {
          "internalType": "address",
          "name": "executor",
          "type": "address"
        }
      ],
      "name": "getAuthorization",
      "outputs": [
        {
          "components": [
            {
              "internalType": "uint48",
              "name": "expiresAt",
              "type": "uint48"
            },
            {
              "internalType": "bytes32",
              "name": "permissionsHash",
              "type": "bytes32"
            }
          ],
          "internalType": "struct AgentRegistry.UsageAuth",
          "name": "",
          "type": "tuple"
        }
      ],
      "stateMutability": "view",
      "type": "function"
    },
    {
      "inputs": [
        {
          "internalType": "address",
          "name": "user",
          "type": "address"
        }
      ],
      "name": "getDelegateAccess",
      "outputs": [
        {
          "internalType": "address",
          "name": "",
          "type": "address"
        }
      ],
      "stateMutability": "view",
      "type": "function"
    },
    {
      "inputs": [
        {
          "internalType": "address",
          "name": "owner",
          "type": "address"
        }
      ],
      "name": "getOwnerAgents",
      "outputs": [
        {
          "internalType": "uint256[]",
          "name": "",
          "type": "uint256[]"
        }
      ],
      "stateMutability": "view",
      "type": "function"
    },
    {
      "inputs": [
        {
          "internalType": "uint256",
          "name": "agentId",
          "type": "uint256"
        },
        {
          "internalType": "bytes32",
          "name": "skillId",
          "type": "bytes32"
        }
      ],
      "name": "getSkillReputation",
      "outputs": [
        {
          "components": [
            {
              "internalType": "uint16",
              "name": "scoreBps",
              "type": "uint16"
            },
            {
              "internalType": "uint64",
              "name": "jobsCompleted",
              "type": "uint64"
            },
            {
              "internalType": "uint64",
              "name": "jobsAttempted",
              "type": "uint64"
            },
            {
              "internalType": "uint48",
              "name": "lastUpdated",
              "type": "uint48"
            },
            {
              "internalType": "uint128",
              "name": "totalEarningsWei",
              "type": "uint128"
            }
          ],
          "internalType": "struct AgentRegistry.SkillReputation",
          "name": "",
          "type": "tuple"
        }
      ],
      "stateMutability": "view",
      "type": "function"
    },
    {
      "inputs": [
        {
          "internalType": "uint256",
          "name": "agentId",
          "type": "uint256"
        },
        {
          "internalType": "bytes32",
          "name": "skillId",
          "type": "bytes32"
        }
      ],
      "name": "hasSkill",
      "outputs": [
        {
          "internalType": "bool",
          "name": "",
          "type": "bool"
        }
      ],
      "stateMutability": "view",
      "type": "function"
    },
    {
      "inputs": [
        {
          "internalType": "uint256",
          "name": "agentId",
          "type": "uint256"
        },
        {
          "internalType": "address",
          "name": "newOwner",
          "type": "address"
        },
        {
          "internalType": "bytes32",
          "name": "newCapabilityHash",
          "type": "bytes32"
        },
        {
          "internalType": "bytes",
          "name": "newSealedKey",
          "type": "bytes"
        },
        {
          "internalType": "bytes",
          "name": "oracleProof",
          "type": "bytes"
        }
      ],
      "name": "iClone",
      "outputs": [
        {
          "internalType": "uint256",
          "name": "newId",
          "type": "uint256"
        }
      ],
      "stateMutability": "nonpayable",
      "type": "function"
    },
    {
      "inputs": [
        {
          "internalType": "uint256",
          "name": "agentId",
          "type": "uint256"
        },
        {
          "internalType": "address",
          "name": "to",
          "type": "address"
        },
        {
          "internalType": "bytes32",
          "name": "newCapabilityHash",
          "type": "bytes32"
        },
        {
          "internalType": "bytes",
          "name": "newSealedKey",
          "type": "bytes"
        },
        {
          "internalType": "bytes",
          "name": "oracleProof",
          "type": "bytes"
        }
      ],
      "name": "iTransfer",
      "outputs": [],
      "stateMutability": "nonpayable",
      "type": "function"
    },
    {
      "inputs": [
        {
          "internalType": "uint256",
          "name": "agentId",
          "type": "uint256"
        },
        {
          "internalType": "address",
          "name": "executor",
          "type": "address"
        }
      ],
      "name": "isAuthorized",
      "outputs": [
        {
          "internalType": "bool",
          "name": "",
          "type": "bool"
        }
      ],
      "stateMutability": "view",
      "type": "function"
    },
    {
      "inputs": [
        {
          "internalType": "uint32",
          "name": "defaultRate",
          "type": "uint32"
        },
        {
          "internalType": "bytes32",
          "name": "profileHash",
          "type": "bytes32"
        },
        {
          "internalType": "bytes32",
          "name": "capabilityHash",
          "type": "bytes32"
        },
        {
          "internalType": "bytes32[]",
          "name": "skillIds",
          "type": "bytes32[]"
        },
        {
          "internalType": "address",
          "name": "agentWallet",
          "type": "address"
        },
        {
          "internalType": "bytes",
          "name": "eciesPubKey",
          "type": "bytes"
        },
        {
          "internalType": "bytes",
          "name": "sealedAesKey",
          "type": "bytes"
        }
      ],
      "name": "mintAgent",
      "outputs": [
        {
          "internalType": "uint256",
          "name": "agentId",
          "type": "uint256"
        }
      ],
      "stateMutability": "nonpayable",
      "type": "function"
    },
    {
      "inputs": [],
      "name": "name",
      "outputs": [
        {
          "internalType": "string",
          "name": "",
          "type": "string"
        }
      ],
      "stateMutability": "pure",
      "type": "function"
    },
    {
      "inputs": [],
      "name": "oracle",
      "outputs": [
        {
          "internalType": "address",
          "name": "",
          "type": "address"
        }
      ],
      "stateMutability": "view",
      "type": "function"
    },
    {
      "inputs": [],
      "name": "owner",
      "outputs": [
        {
          "internalType": "address",
          "name": "",
          "type": "address"
        }
      ],
      "stateMutability": "view",
      "type": "function"
    },
    {
      "inputs": [
        {
          "internalType": "uint256",
          "name": "agentId",
          "type": "uint256"
        }
      ],
      "name": "ownerOf",
      "outputs": [
        {
          "internalType": "address",
          "name": "",
          "type": "address"
        }
      ],
      "stateMutability": "view",
      "type": "function"
    },
    {
      "inputs": [
        {
          "internalType": "address",
          "name": "",
          "type": "address"
        },
        {
          "internalType": "uint256",
          "name": "",
          "type": "uint256"
        }
      ],
      "name": "ownerToAgentIds",
      "outputs": [
        {
          "internalType": "uint256",
          "name": "",
          "type": "uint256"
        }
      ],
      "stateMutability": "view",
      "type": "function"
    },
    {
      "inputs": [],
      "name": "pause",
      "outputs": [],
      "stateMutability": "nonpayable",
      "type": "function"
    },
    {
      "inputs": [],
      "name": "paused",
      "outputs": [
        {
          "internalType": "bool",
          "name": "",
          "type": "bool"
        }
      ],
      "stateMutability": "view",
      "type": "function"
    },
    {
      "inputs": [],
      "name": "pendingOwner",
      "outputs": [
        {
          "internalType": "address",
          "name": "",
          "type": "address"
        }
      ],
      "stateMutability": "view",
      "type": "function"
    },
    {
      "inputs": [
        {
          "internalType": "uint256",
          "name": "agentId",
          "type": "uint256"
        },
        {
          "internalType": "uint128",
          "name": "earningsWei",
          "type": "uint128"
        },
        {
          "internalType": "bool",
          "name": "jobCompleted",
          "type": "bool"
        },
        {
          "internalType": "bytes32",
          "name": "skillId",
          "type": "bytes32"
        }
      ],
      "name": "recordJobResult",
      "outputs": [],
      "stateMutability": "nonpayable",
      "type": "function"
    },
    {
      "inputs": [
        {
          "internalType": "address",
          "name": "escrow",
          "type": "address"
        }
      ],
      "name": "removeEscrowContract",
      "outputs": [],
      "stateMutability": "nonpayable",
      "type": "function"
    },
    {
      "inputs": [
        {
          "internalType": "uint256",
          "name": "agentId",
          "type": "uint256"
        },
        {
          "internalType": "bytes32",
          "name": "skillId",
          "type": "bytes32"
        }
      ],
      "name": "removeSkill",
      "outputs": [],
      "stateMutability": "nonpayable",
      "type": "function"
    },
    {
      "inputs": [],
      "name": "renounceOwnership",
      "outputs": [],
      "stateMutability": "nonpayable",
      "type": "function"
    },
    {
      "inputs": [
        {
          "internalType": "uint256",
          "name": "agentId",
          "type": "uint256"
        },
        {
          "internalType": "address",
          "name": "executor",
          "type": "address"
        }
      ],
      "name": "revokeUsage",
      "outputs": [],
      "stateMutability": "nonpayable",
      "type": "function"
    },
    {
      "inputs": [
        {
          "internalType": "address",
          "name": "newOracle",
          "type": "address"
        }
      ],
      "name": "setOracle",
      "outputs": [],
      "stateMutability": "nonpayable",
      "type": "function"
    },
    {
      "inputs": [
        {
          "internalType": "uint256",
          "name": "",
          "type": "uint256"
        },
        {
          "internalType": "bytes32",
          "name": "",
          "type": "bytes32"
        }
      ],
      "name": "skillReputations",
      "outputs": [
        {
          "internalType": "uint16",
          "name": "scoreBps",
          "type": "uint16"
        },
        {
          "internalType": "uint64",
          "name": "jobsCompleted",
          "type": "uint64"
        },
        {
          "internalType": "uint64",
          "name": "jobsAttempted",
          "type": "uint64"
        },
        {
          "internalType": "uint48",
          "name": "lastUpdated",
          "type": "uint48"
        },
        {
          "internalType": "uint128",
          "name": "totalEarningsWei",
          "type": "uint128"
        }
      ],
      "stateMutability": "view",
      "type": "function"
    },
    {
      "inputs": [],
      "name": "symbol",
      "outputs": [
        {
          "internalType": "string",
          "name": "",
          "type": "string"
        }
      ],
      "stateMutability": "pure",
      "type": "function"
    },
    {
      "inputs": [
        {
          "internalType": "uint256",
          "name": "agentId",
          "type": "uint256"
        }
      ],
      "name": "toggleActive",
      "outputs": [],
      "stateMutability": "nonpayable",
      "type": "function"
    },
    {
      "inputs": [],
      "name": "totalAgents",
      "outputs": [
        {
          "internalType": "uint256",
          "name": "",
          "type": "uint256"
        }
      ],
      "stateMutability": "view",
      "type": "function"
    },
    {
      "inputs": [
        {
          "internalType": "uint256",
          "name": "agentId",
          "type": "uint256"
        },
        {
          "internalType": "uint16",
          "name": "version",
          "type": "uint16"
        },
        {
          "internalType": "bytes32",
          "name": "oldHash",
          "type": "bytes32"
        },
        {
          "internalType": "bytes32",
          "name": "newHash",
          "type": "bytes32"
        },
        {
          "internalType": "address",
          "name": "to",
          "type": "address"
        }
      ],
      "name": "transferDigest",
      "outputs": [
        {
          "internalType": "bytes32",
          "name": "",
          "type": "bytes32"
        }
      ],
      "stateMutability": "view",
      "type": "function"
    },
    {
      "inputs": [
        {
          "internalType": "address",
          "name": "newOwner",
          "type": "address"
        }
      ],
      "name": "transferOwnership",
      "outputs": [],
      "stateMutability": "nonpayable",
      "type": "function"
    },
    {
      "inputs": [],
      "name": "unpause",
      "outputs": [],
      "stateMutability": "nonpayable",
      "type": "function"
    },
    {
      "inputs": [
        {
          "internalType": "uint256",
          "name": "agentId",
          "type": "uint256"
        },
        {
          "internalType": "bytes32",
          "name": "newCapabilityHash",
          "type": "bytes32"
        },
        {
          "internalType": "bytes",
          "name": "newSealedKey",
          "type": "bytes"
        }
      ],
      "name": "updateCapability",
      "outputs": [],
      "stateMutability": "nonpayable",
      "type": "function"
    },
    {
      "inputs": [
        {
          "internalType": "uint256",
          "name": "agentId",
          "type": "uint256"
        },
        {
          "internalType": "bytes32",
          "name": "newProfileHash",
          "type": "bytes32"
        }
      ],
      "name": "updateProfileHash",
      "outputs": [],
      "stateMutability": "nonpayable",
      "type": "function"
    },
    {
      "inputs": [
        {
          "internalType": "uint256",
          "name": "agentId",
          "type": "uint256"
        },
        {
          "internalType": "bytes32",
          "name": "newCapabilityHash",
          "type": "bytes32"
        },
        {
          "internalType": "bytes32[]",
          "name": "addSkillIds",
          "type": "bytes32[]"
        },
        {
          "internalType": "bytes32[]",
          "name": "removeSkillIds",
          "type": "bytes32[]"
        }
      ],
      "name": "updateSkillSet",
      "outputs": [],
      "stateMutability": "nonpayable",
      "type": "function"
    }
  ],
  "bytecode": "0x608080604052346100755760015460008054336001600160a01b0319821681178355916001600160a01b03909116907f8be0079c531659141344cd1fd0a4f28419497f9722a3daafe3b4186f6b6457e09080a36001600160a81b03191660019081556002819055600355613316908161007b8239f35b600080fdfe6080604052600436101561001257600080fd5b60003560e01c806302e38b8a1461286d578063056951ac146127f757806306fdde0314612799578063073cf1fa146127645780630b41ccfd146127475780630b6e14fb146127005780630e592fdd146126c55780631aeb542f1461260d5780631d046465146125885780631d1dc98b146122d85780632390e48d146121935780632f4735f314611d49578063334029d614611ccf5780633f4ba83a14611c2c5780634050c6b514611c00578063513856c814611b2357806357bc5df414611a4e57806357d89af0146119235780635c975abb146118fd578063609c6d7f146118aa5780636352211e1461186e5780636c1959731461180157806370a08231146117c7578063715018a6146117655780637585840a146116b157806379ba5097146115dc5780637adbf9731461156c5780637dc0d1d014611545578063844e976a146115105780638456cb591461149f5780638da5cb5b1461147857806395d89b411461141657806398bd57de146113ac578063a3617afe146111b7578063b1c76b1d14610ecf578063bb36ed1714610d2b578063c0ecad4a14610cec578063c47e047e14610c46578063c505371214610c24578063cbd8e12f14610b82578063cd97b7bc14610b4b578063d1bca73d14610b2f578063d589621e14610a54578063dc3d0acf14610a38578063e183549f146109f2578063e30c3978146109cb578063e9315571146105a5578063f098a7ae14610360578063f2fde38b146102f65763fb4c8eb41461024257600080fd5b346102f15761025036612965565b81600052600460205260406000206001600160a01b0381541633036102df5781156102cd5760028101829055600401805465ffffffffffff60c01b19164260c01b65ffffffffffff60c01b161790557fe9d7d0cf34a7abaca8f883e781c9302f69f542ac7aad58a456f83fd991d65fa990602090604051908152a2005b60405163b263ae7360e01b8152600490fd5b604051630e41dcbf60e21b8152600490fd5b600080fd5b346102f15760203660031901126102f15761030f6128b5565b610317612af3565b6001600160a01b0380911690816001600160a01b03196001541617600155600054167f38d16b8cac22d99fc7c124b9cd0de2d3fa1faef420bfe791d8c362d765e22700600080a3005b346102f15760203660031901126102f157600435600061018060405161038581612a83565b8281528260208201528260408201528260608201528260808201528260a08201528260c08201528260e08201528261010082015282610120820152826101408201528261016082015201528060005260046020526001600160a01b0360406000205416156105935760005260046020526101a0604060002065ffffffffffff61018060405161041381612a83565b8260048554956001600160a01b0387168452828760a01c16602085015261ffff8760d01c16604085015261ffff8760e01c16606085015260ff8760f01c1615156080850152600181015460a0850152600281015460c085015260038101546001600160a01b03811660e086015267ffffffffffffffff8160a01c1661010086015260e01c610120850152015467ffffffffffffffff81166101408401526001600160801b038160401c1661016084015260c01c16828201526001600160a01b036040519416845282602082015116602085015261ffff604082015116604085015261ffff606082015116606085015260808101511515608085015260a081015160a085015260c081015160c08501526001600160a01b0360e08201511660e085015267ffffffffffffffff6101008201511661010085015263ffffffff6101208201511661012085015267ffffffffffffffff610140820151166101408501526001600160801b0361016082015116610160850152015116610180820152f35b6040516307ed98ed60e31b8152600490fd5b346102f15760e03660031901126102f15763ffffffff60043516600435036102f15760643567ffffffffffffffff81116102f1576105e7903690600401612ac2565b6105ef6128e1565b9060a43567ffffffffffffffff81116102f15761061090369060040161297b565b9260c43567ffffffffffffffff81116102f15761063190369060040161297b565b93909261063c612b4b565b6001600160a01b038316156109b957336001600160a01b038416146109b957602435156102cd57604435156102cd5785156109a75784156109955760148211610983576003549560018701600355866000526004602052610792604060002060036001600160a01b031991338382541617815561070c65ffffffffffff42166106e481849065ffffffffffff60a01b1965ffffffffffff60a01b83549260a01b169116179055565b600483019065ffffffffffff60c01b1965ffffffffffff60c01b83549260c01b169116179055565b805464ffffffffff60d01b1916630400047d60d61b178155604435600182015560243560028201550180547bffffffffffffffffffffffffffffffffffffffffffffffffffffffff9216919091166001600160a01b0387161760043560e01b7fffffffff0000000000000000000000000000000000000000000000000000000016179055565b600560205260406000209167ffffffffffffffff821161096d5781906107c2826107bc8654612a11565b86612b9f565b600090601f8311600114610902576000926108f7575b50508160011b916000199060031b1c19161790555b336000526006602052604060002054600760205260406000208660005260205260406000205533600052600660205261082a856040600020612bf3565b60005b8181106108d95760208686817f1f72613d2fbde5329a49086b7d3a663a992be3cd7ee881e056546cb86d39d7b36108ce89896001600160a01b036040519160443583526024358a84015216604082015263ffffffff600435166060820152847fd4a2816380d5f298027e608dd38be2082a56baf046180e95c71cf1ba469090b160803393a36040519182916001835260408984015233966040840191612c2e565b0390a3604051908152f35b806108f16108ea600193858b612c1e565b35886130e7565b0161082d565b0135905089806107d8565b909150601f198316918460005260206000209260005b818110610955575090846001959493921061093b575b505050811b0190556107ed565b0135600019600384901b60f8161c1916905589808061092e565b91936020600181928787013581550195019201610918565b634e487b7160e01b600052604160045260246000fd5b604051630e4aec0360e11b8152600490fd5b60405163626d54e560e01b8152600490fd5b604051630cd406ed60e31b8152600490fd5b60405163d92e233d60e01b8152600490fd5b346102f15760003660031901126102f15760206001600160a01b0360015416604051908152f35b346102f15760a03660031901126102f15760243561ffff811681036102f157610a30602091610a1f6128e1565b906064359060443590600435612dba565b604051908152f35b346102f15760003660031901126102f157602060405160148152f35b346102f157610a6236612965565b9060006080604051610a7381612a67565b8281528260208201528260408201528260608201520152600052600a60205260406000209060005260205260a060406000206001604051610ab381612a67565b825461ffff8116938483526020830167ffffffffffffffff90818460101c168152816040860191818660501c1683526080606088019565ffffffffffff809860901c1687526001600160801b03998a91015416970196875260405198895251166020880152511660408601525116606084015251166080820152f35b346102f15760003660031901126102f157602060405160328152f35b346102f157610b5936612965565b8160005260046020526001600160a01b036040600020541633036102df57610b80916131c2565b005b346102f15760203660031901126102f15760043580600052600460205260406000208054336001600160a01b038216036102df577fc7b4da35ef4d9b00ecab660cf997a3a95c58d9318808d2db76d958533af3d055916020917fff00ffffffffffffffffffffffffffffffffffffffffffffffffffffffffffff60ff60f01b60ff8360f01c161560f01b1691161780915560ff6040519160f01c1615158152a2005b346102f15760003660031901126102f157602060001960035401604051908152f35b346102f1576020806003193601126102f15760043560005260088152604060002060405190818382549182815201908192600052846000209060005b86828210610cd8578686610c9882880383612aa0565b604051928392818401908285525180915260408401929160005b828110610cc157505050500390f35b835185528695509381019392810192600101610cb2565b835485529093019260019283019201610c82565b346102f15760203660031901126102f1576001600160a01b03610d0d6128b5565b16600052600e602052602060ff604060002054166040519015158152f35b346102f15760803660031901126102f157600435610d476128cb565b9065ffffffffffff60443581811681036102f15760643591610d67612b4b565b83600052602090600482526001600160a01b03806040600020541633036102df5786169586156109b9578180421694850116938410610ebd5785600052600b83526040600020876000528352816040600020541615610e37575b5092604092917fbd3cc4d56abd8e0e18ac44df0ee6d9a340a3e5f9ce5431671baf4567f1bfc693946001855191610df783612a4b565b8583528383019085825289600052600b8552876000208b60005285528760002093511665ffffffffffff19845416178355519101558351928352820152a3005b9390929185600052600c815260406000209384546801000000000000000081101561096d577fbd3cc4d56abd8e0e18ac44df0ee6d9a340a3e5f9ce5431671baf4567f1bfc69396610e93826040986001610eb3950181556128f7565b90919082549060031b916001600160a01b03809116831b921b1916179055565b9194509192610dc1565b6040516368c2e67360e11b8152600490fd5b346102f157610edd366129a9565b909293959491610eeb612b4b565b610ef3612c6d565b85600052600460205260406000209485546001600160a01b039533878316036102df57868616156109b95733878716146111a55789156102cd57831561099557600188015494858b1461119357610f5691878c888d61ffff8860e01c1690612e1b565b610f9a61ffff6001818989166001600160a01b0319861617808c558d838d015560e01c160116889061ffff60e01b1982549161ffff60e01b9060e01b169116179055565b60048701805465ffffffffffff60c01b19164260c01b65ffffffffffff60c01b1617905585811660005260066020526040600020936007602052604060002089600052602052604060002054600019865401808203611137575b505084548015611121577f1f72613d2fbde5329a49086b7d3a663a992be3cd7ee881e056546cb86d39d7b3986111179661ffff92600019019061103782826128f7565b8154906000199060031b1b1916905555888416600052600760205260406000208b600052602052600060408120558888166000526006602052604060002054600760205260406000208c60005260205260406000205588881660005260066020526110a68b6040600020612bf3565b8a600052600460205260406000208989166001600160a01b03198254161790555460e01c16996040519182526020820152896040820152887fe8d8e45cd8585531b524ebc04b05104a6e6c32a4bbc29fc94052165c5bbf02d6606089808a16951693a4604051948594169784612c4f565b0390a36001600255005b634e487b7160e01b600052603160045260246000fd5b61114190876128f7565b90549060031b1c8061116d611156848a6128f7565b819391549060031b91821b91600019901b19161790565b905588841660005260076020526040600020906000526020526040600020558a80610ff4565b60405163303a23ef60e11b8152600490fd5b604051634d9ecd9160e01b8152600490fd5b346102f15760803660031901126102f15760043560243567ffffffffffffffff6044358181116102f1576111ef903690600401612ac2565b90916064359081116102f157611209903690600401612ac2565b611211612b4b565b85600052602094600486526001600160a01b036040600020541633036102df57808791611335575b505060005b8181106112e95750505083600052600883526040600020548181018091116112d3576032106112c15760005b8181106112a35760008581526004808652604090912001805465ffffffffffff60c01b19164260c01b65ffffffffffff60c01b16179055005b806112bb6112b46001938587612c1e565b35876130e7565b0161126a565b60405163be09e07560e01b8152600490fd5b634e487b7160e01b600052601160045260246000fd5b60019087600052600987526040600020611304828587612c1e565b35600052875260406000205461131b575b0161123e565b611330611329828587612c1e565b35896131c2565b611315565b6000828152600488526040908190206001808201849055815461ffff60e01b19811660e091821c61ffff908116909301821b61ffff60e01b16179283905583519485529190911c1660208301527ff3bf49c18f579fab19628a2020bcb77430854fce713f794a8a838f7b7b85af4191a28587611239565b346102f15760203660031901126102f1576113c56128b5565b33600052600d6020526001600160a01b036040600020911690816001600160a01b0319825416179055337ffb3873bd1f638f676957f270f17e0560463a08bb9d83dfdde6d3b04ae18669b8600080a3005b346102f15760003660031901126102f15761147460405161143681612a4b565b600581527f4147454e540000000000000000000000000000000000000000000000000000006020820152604051918291602083526020830190612925565b0390f35b346102f15760003660031901126102f15760206001600160a01b0360005416604051908152f35b346102f15760003660031901126102f1576114b8612af3565b6114c0612b4b565b7401000000000000000000000000000000000000000060ff60a01b1960015416176001557f62e78cea01bee320cd4e420270b5ea74000d11b0c9f74754ebdbfc544b05a2586020604051338152a1005b346102f15761151e36612965565b8160005260046020526001600160a01b036040600020541633036102df57610b80916130e7565b346102f15760003660031901126102f15760206001600160a01b03600f5416604051908152f35b346102f15760203660031901126102f1576115856128b5565b61158d612af3565b6001600160a01b038091169081156109b9576001600160a01b03199082600f549182167fc1d3048301c0d23629a2532c8defa6d68f8e1a0e4157918769e9fb1b2eeb888e600080a31617600f55005b346102f15760003660031901126102f1576001546001600160a01b033381831603611646576001600160a01b03198092166001556000549133908316176000553391167f8be0079c531659141344cd1fd0a4f28419497f9722a3daafe3b4186f6b6457e0600080a3005b60405162461bcd60e51b815260206004820152602960248201527f4f776e61626c6532537465703a2063616c6c6572206973206e6f74207468652060448201527f6e6577206f776e657200000000000000000000000000000000000000000000006064820152608490fd5b346102f1576020806003193601126102f1576001600160a01b036116d36128b5565b1660005260068152604060002060405190818382549182815201908192600052846000209060005b8682821061175157868661171182880383612aa0565b604051928392818401908285525180915260408401929160005b82811061173a57505050500390f35b83518552869550938101939281019260010161172b565b8354855290930192600192830192016116fb565b346102f15760003660031901126102f15761177e612af3565b60006001600160a01b036001600160a01b0319806001541660015582549081168355167f8be0079c531659141344cd1fd0a4f28419497f9722a3daafe3b4186f6b6457e08280a3005b346102f15760203660031901126102f1576001600160a01b036117e86128b5565b1660005260066020526020604060002054604051908152f35b346102f15760203660031901126102f1576001600160a01b036118226128b5565b61182a612af3565b1680600052600e602052604060002060ff1981541690557fd050846fbbc71ea3fa1c3cde22c675780769aaa30c5152a411e2e1086ce931f8602060405160008152a2005b346102f15760203660031901126102f15760043560005260046020526001600160a01b0360406000205416801561059357602090604051908152f35b346102f15760403660031901126102f1576118c36128cb565b600435600052600b6020526001600160a01b0360406000209116600052602052602065ffffffffffff604060002054166040519042108152f35b346102f15760003660031901126102f157602060ff60015460a01c166040519015158152f35b346102f15760403660031901126102f15760043561193f6128cb565b908060005260046020526001600160a01b03806040600020541633036102df5781600052600b6020528060406000209316928360005260205260406000209060008255600060018093015582600052600c60205260406000209081549160005b8381106119d0575b86867f1ba7e5fd98e9d431d96d40388196be40e63f5087db78ee7ac286e3d6568fce4e600080a3005b82876119dc83856128f7565b929054600393841b1c16146119f35750840161199f565b94509092600019918282019182116112d357610e9384611a16611a2494886128f7565b905490891b1c1691866128f7565b82548015611121570192611a3884846128f7565b81939154921b1b191690555582808080806119a7565b346102f1576020806003193601126102f15760043560005260058152604060002090604051918260008254611a8281612a11565b93848452600191868382169182600014611b01575050600114611ac2575b5050611aae92500383612aa0565b611474604051928284938452830190612925565b85925060005281600020906000915b858310611ae9575050611aae93508201018580611aa0565b80548389018501528794508693909201918101611ad1565b9250935050611aae94915060ff191682840152151560051b8201018580611aa0565b346102f15760203660031901126102f15760043560005260046020526101a06040600020805460018201546002830154926004600382015491015491604051946001600160a01b0391828616875260ff65ffffffffffff96878160a01c1660208a015261ffff808260d01c1660408b01528160e01c1660608a015260f01c161515608088015260a087015260c0860152811660e085015267ffffffffffffffff90818160a01c1661010086015260e01c61012085015281166101408401526001600160801b038160401c1661016084015260c01c16610180820152f35b346102f15760203660031901126102f15760043560005260086020526020604060002054604051908152f35b346102f15760003660031901126102f157611c45612af3565b60015460ff8160a01c1615611c8a5760ff60a01b19166001557f5db9ee0a495bf2e6ff9c91a7834c1ba4fdd244a5e8aa4e537bd38aeae4b073aa6020604051338152a1005b60405162461bcd60e51b815260206004820152601460248201527f5061757361626c653a206e6f74207061757365640000000000000000000000006044820152606490fd5b346102f157611cdd36612965565b90600052600a60205260406000209060005260205260a060406000206001600160801b03600182549201541665ffffffffffff6040519261ffff8116845267ffffffffffffffff808260101c1660208601528160501c16604085015260901c1660608301526080820152f35b346102f15760803660031901126102f1576024356004356001600160801b0380831683036102f1576044359081151582036102f1576064359333600052600e60205260ff604060002054161561218257836000526004602052604060002091600483019185835467ffffffffffffffff94818660018180951601168067ffffffffffffffff198316178987898d8488556120d7575b505050505050541680612039575b7fe1b8a73c3f436e52160943a45379c7df10fe454f8a7492679cdaabbf0af629f49061ffff96611e568760038a845460d01c1693015460a01c16926040519384938491604091949361ffff606085019616845267ffffffffffffffff809216602085015216910152565b0390a286611e6057005b85600052600a6020526040600020876000526020526040600020948554908471ffffffffffffffff000000000000000000006001828560501c160160501b16918271ffffffffffffffff000000000000000000001985161790818a55611fe1575b5050505050508254818160501c169081611f85575b5050611f80837f313018008b6618709bc74fa368387adf8534c025678ab0bb82f80d3d53706241945477ffffffffffff0000000000000000000000000000000000004260901b167fffffffffffffffff000000000000ffffffffffffffffffffffffffffffffffff821617809255604051948486958460501c169360101c1691168491604091949361ffff606085019616845267ffffffffffffffff809216602085015216910152565b0390a3005b9093828260101c1691612710928381029381850414901517156112d35784611fd17f313018008b6618709bc74fa368387adf8534c025678ab0bb82f80d3d5370624197611f8095612d9a565b169061ffff191617815593611ed6565b69ffffffffffffffff00009160019160101c160160101b169171ffffffffffffffffffffffffffffffff000019161717855560018501918254918183160116906001600160801b031916179055858080808481611ec1565b905083600386015460a01c16612710908181029181830414901517156112d3578161208689937fe1b8a73c3f436e52160943a45379c7df10fe454f8a7492679cdaabbf0af629f493612d9a565b7fffffffff0000ffffffffffffffffffffffffffffffffffffffffffffffffffff7bffff000000000000000000000000000000000000000000000000000089549260d01b1691161787559050611dec565b7fffffffffffffffff00000000000000000000000000000000000000000000000093600377ffffffffffffffffffffffffffffffff0000000000000000940180547fffffffff0000000000000000ffffffffffffffffffffffffffffffffffffffff7bffffffffffffffff000000000000000000000000000000000000000060018d8460a01c160160a01b16911617905560401c160160401b169216171781558a8080898789611dde565b60405162e8b78b60e71b8152600490fd5b346102f15760603660031901126102f15760243560043560443567ffffffffffffffff81116102f1576121ca90369060040161297b565b6121d2612b4b565b8260005260046020526040600020918254336001600160a01b038216036102df5785156102cd578215610995577ff3bf49c18f579fab19628a2020bcb77430854fce713f794a8a838f7b7b85af4160018561227988948a847f1f72613d2fbde5329a49086b7d3a663a992be3cd7ee881e056546cb86d39d7b39a015561ffff9384809260e01c160116829061ffff60e01b1982549161ffff60e01b9060e01b169116179055565b60048101805465ffffffffffff60c01b19164260c01b65ffffffffffff60c01b161790555460e01c1680976122c46040519283928390929161ffff6020916040840195845216910152565b0390a2611f80604051928392339784612c4f565b346102f1576122e6366129a9565b94929193906122f3612b4b565b6122fb612c6d565b866000526004602052604060002095865491336001600160a01b038416036102df576001600160a01b038616156109b95783156102cd5786156109955785846123519461ffff60018c01549160e01c168c612e1b565b61245f6003549560018701600355866000526004602052604060002060036001600160a01b0319926001600160a01b038816848454161783556123e765ffffffffffff42166123bf81869065ffffffffffff60a01b1965ffffffffffff60a01b83549260a01b169116179055565b600485019065ffffffffffff60c01b1965ffffffffffff60c01b83549260c01b169116179055565b630400047d60d61b64ffffffffff60d01b1984541617835585600184015560028101546002840155019060036001600160a01b038354169101928354161782555460e01c7bffffffffffffffffffffffffffffffffffffffffffffffffffffffff82549163ffffffff60e01b9060e01b169116179055565b85600052600560205261247e6040600020866000526040600020612cc1565b856000526008602052604060002095865460005b8181106125655760208888817f1f72613d2fbde5329a49086b7d3a663a992be3cd7ee881e056546cb86d39d7b36001600160a01b038b6125558c8c868d86861660005260068c5260406000205460078d526040600020836000528d5260406000205586861660005260068c5261250c826040600020612bf3565b6040519283527fe0b08f2c05e47c5d98b0c41f9bb8bee0e6f6c2fb7c9ed3c1f7a6d0d64fab4bbd8c88881694a46040519384936001855260408b86015216966040840191612c2e565b0390a36001600255604051908152f35b806125826125756001938c6128f7565b90549060031b1c8a6130e7565b01612492565b346102f15760403660031901126102f1576125a16128cb565b600060206040516125b181612a4b565b8281520152600435600052600b6020526001600160a01b036040600020911660005260205260408060002081516125e781612a4b565b6020600165ffffffffffff84541693848452015491019081528251918252516020820152f35b346102f1576020806003193601126102f157600435600052600c8152604060002060405190818382549182815201908192600052846000209060005b868282106126a857868661265f82880383612aa0565b604051928392818401908285525180915260408401929160005b82811061268857505050500390f35b83516001600160a01b031685528695509381019392810192600101612679565b83546001600160a01b031685529093019260019283019201612649565b346102f15760203660031901126102f15760206001600160a01b03806126e96128b5565b16600052600d825260406000205416604051908152f35b346102f15760403660031901126102f1576024356004356000526008602052604060002080548210156102f157602091612739916128f7565b90546040519160031b1c8152f35b346102f15760003660031901126102f1576020604051611f408152f35b346102f15761277236612965565b90600052600960205260406000209060005260205260206040600020541515604051908152f35b346102f15760003660031901126102f1576114746040516127b981612a4b565b601081527f7a657230476967204167656e74204944000000000000000000000000000000006020820152604051918291602083526020830190612925565b346102f15760203660031901126102f1576001600160a01b036128186128b5565b612820612af3565b1680156109b95780600052600e6020526040600020600160ff198254161790557fd050846fbbc71ea3fa1c3cde22c675780769aaa30c5152a411e2e1086ce931f8602060405160018152a2005b346102f15760403660031901126102f1576128866128b5565b6001600160a01b0360243591166000526006602052604060002080548210156102f157602091612739916128f7565b600435906001600160a01b03821682036102f157565b602435906001600160a01b03821682036102f157565b608435906001600160a01b03821682036102f157565b805482101561290f5760005260206000200190600090565b634e487b7160e01b600052603260045260246000fd5b919082519283825260005b848110612951575050826000602080949584010152601f8019910116010190565b602081830181015184830182015201612930565b60409060031901126102f1576004359060243590565b9181601f840112156102f15782359167ffffffffffffffff83116102f157602083818601950101116102f157565b9060a06003198301126102f157600435916024356001600160a01b03811681036102f157916044359167ffffffffffffffff916064358381116102f157826129f39160040161297b565b939093926084359182116102f157612a0d9160040161297b565b9091565b90600182811c92168015612a41575b6020831014612a2b57565b634e487b7160e01b600052602260045260246000fd5b91607f1691612a20565b6040810190811067ffffffffffffffff82111761096d57604052565b60a0810190811067ffffffffffffffff82111761096d57604052565b6101a0810190811067ffffffffffffffff82111761096d57604052565b90601f8019910116810190811067ffffffffffffffff82111761096d57604052565b9181601f840112156102f15782359167ffffffffffffffff83116102f1576020808501948460051b0101116102f157565b6001600160a01b03600054163303612b0757565b606460405162461bcd60e51b815260206004820152602060248201527f4f776e61626c653a2063616c6c6572206973206e6f7420746865206f776e65726044820152fd5b60ff60015460a01c16612b5a57565b60405162461bcd60e51b815260206004820152601060248201527f5061757361626c653a20706175736564000000000000000000000000000000006044820152606490fd5b90601f8111612bad57505050565b600091825260208220906020601f850160051c83019410612be9575b601f0160051c01915b828110612bde57505050565b818155600101612bd2565b9092508290612bc9565b8054906801000000000000000082101561096d5781611156916001612c1a940181556128f7565b9055565b919081101561290f5760051b0190565b908060209392818452848401376000828201840152601f01601f1916010190565b60409061ffff612c6a95931681528160208201520191612c2e565b90565b6002805414612c7c5760028055565b60405162461bcd60e51b815260206004820152601f60248201527f5265656e7472616e637947756172643a207265656e7472616e742063616c6c006044820152606490fd5b90808214612d9657612cd38154612a11565b9067ffffffffffffffff821161096d578190612cf3826107bc8654612a11565b600090601f8311600114612d2a57600092612d1f575b50508160011b916000199060031b1c1916179055565b015490503880612d09565b81526020808220858352818320935090601f1985169083905b828210612d7d575050908460019594939210612d64575b505050811b019055565b015460001960f88460031b161c19169055388080612d5a565b8495819295850154815560018091019601940190612d43565b5050565b8115612da4570490565b634e487b7160e01b600052601260045260246000fd5b9390926001600160a01b039261ffff604051956020870197468952306040890152606088015216608086015260a085015260c08401521660e082015260e08152610100810181811067ffffffffffffffff82111761096d5760405251902090565b9194939095926001600160a01b039586600f5416978815612ef857612e3f94612dba565b6040519060208201907f19457468657265756d205369676e6564204d6573736167653a0a3332000000008252603c830152603c8252606082019167ffffffffffffffff918184108385111761096d57836040528151902091841161096d57612eb1601f8501601f191660200184612aa0565b83835236848601116102f15760808482612ed796612edf98846000960137010152613024565b919091612f0a565b1603612ee757565b60405162b84d4f60e61b8152600490fd5b604051633e1e538160e21b8152600490fd5b600581101561300e5780612f1b5750565b60018103612f685760405162461bcd60e51b815260206004820152601860248201527f45434453413a20696e76616c6964207369676e617475726500000000000000006044820152606490fd5b60028103612fb55760405162461bcd60e51b815260206004820152601f60248201527f45434453413a20696e76616c6964207369676e6174757265206c656e677468006044820152606490fd5b600314612fbe57565b60405162461bcd60e51b815260206004820152602260248201527f45434453413a20696e76616c6964207369676e6174757265202773272076616c604482015261756560f01b6064820152608490fd5b634e487b7160e01b600052602160045260246000fd5b90604181511460001461304e57612a0d916020820151906060604084015193015160001a90613058565b5050600090600290565b9291907f7fffffffffffffffffffffffffffffff5d576e7357a4501ddfe92f46681b20a083116130db5791608094939160ff602094604051948552168484015260408301526060820152600093849182805260015afa156130ce5781516001600160a01b038116156130c8579190565b50600190565b50604051903d90823e3d90fd5b50505050600090600390565b81156131b057600081815260096020526040808220848352602052808220546131aa5782825260086020528082208054603281101561319957680100000000000000008110156131855790856131696111568460017f28f9d391624e5add492b4237a3c1e08096a55c78762c3d89255f71d2fed398c0989796018555846128f7565b90555490848352600960205280832086845260205282205580a3565b634e487b7160e01b84526041600452602484fd5b82516315380c8360e31b8152600490fd5b50505050565b60405163382ec36960e21b8152600490fd5b600081815260206009815260409081832085845281528183205480156132cf57848452600882528284206000199182810183835401808203613278575b50505080548015613264579185949291817f6125130d8d29f33e0a349985816c9b044ae189a43a26551ee732926219f953fd979593019161324083836128f7565b909182549160031b1b191690555585835260098152818320908784525281205580a3565b634e487b7160e01b86526031600452602486fd5b6132838391856128f7565b90549060031b1c918261329961115683886128f7565b9055116132bb57878752600985528587209087528452848620553880806131ff565b634e487b7160e01b87526011600452602487fd5b82516301f4bca560e01b8152600490fdfea26469706673582212209c7eb1a0a30101ecc4ae83f6755b2f1510e70c628a0f786389d49e7183d035d564736f6c63430008140033",
  "linkReferences": {},
  "deployedLinkReferences": {}
}