{
  "_format": "hh-sol-artifact-1",
  "contractName": "ProgressiveEscrow",
  "sourceName": "src/ProgressiveEscrow.sol",
  "abi": [
    {
      "inputs": [
        {
          "internalType": "address",
          "name": "_agentRegistry",
          "type": "address"
        },
        {
          "internalType": "address",
          "name": "_alignmentNodeVerifier",
          "type": "address"
        }
      ],
      "stateMutability": "nonpayable",
      "type": "constructor"
    },
    {
      "inputs": [],
      "name": "AgentInactive",
      "type": "error"
    },
    {
      "inputs": [],
      "name": "AgentMissingSkill",
      "type": "error"
    },
    {
      "inputs": [],
      "name": "ArrayLengthMismatch",
      "type": "error"
    },
    {
      "inputs": [],
      "name": "InvalidMilestoneCount",
      "type": "error"
    },
    {
      "inputs": [],
      "name": "InvalidMilestoneIndex",
      "type": "error"
    },
    {
      "inputs": [],
      "name": "InvalidProposalIndex",
      "type": "error"
    },
    {
      "inputs": [],
      "name": "InvalidScore",
      "type": "error"
    },
    {
      "inputs": [],
      "name": "InvalidSignature",
      "type": "error"
    },
    {
      "inputs": [],
      "name": "JobNotCancellable",
      "type": "error"
    },
    {
      "inputs": [],
      "name": "JobNotInProgress",
      "type": "error"
    },
    {
      "inputs": [],
      "name": "JobNotInProgressForCancel",
      "type": "error"
    },
    {
      "inputs": [],
      "name": "JobNotOpen",
      "type": "error"
    },
    {
      "inputs": [],
      "name": "MaxRetriesReached",
      "type": "error"
    },
    {
      "inputs": [],
      "name": "MilestoneFinalized",
      "type": "error"
    },
    {
      "inputs": [],
      "name": "MilestonesAlreadyDefined",
      "type": "error"
    },
    {
      "inputs": [],
      "name": "NotAgentOwner",
      "type": "error"
    },
    {
      "inputs": [],
      "name": "NotAgentWallet",
      "type": "error"
    },
    {
      "inputs": [],
      "name": "NotClient",
      "type": "error"
    },
    {
      "inputs": [],
      "name": "NotStale",
      "type": "error"
    },
    {
      "inputs": [],
      "name": "PercentageNotZero",
      "type": "error"
    },
    {
      "inputs": [],
      "name": "PercentageSumInvalid",
      "type": "error"
    },
    {
      "inputs": [],
      "name": "ProposalAlreadyAccepted",
      "type": "error"
    },
    {
      "inputs": [],
      "name": "RefundFailed",
      "type": "error"
    },
    {
      "inputs": [],
      "name": "TransferFailed",
      "type": "error"
    },
    {
      "inputs": [],
      "name": "ValueMismatch",
      "type": "error"
    },
    {
      "inputs": [],
      "name": "ZeroAddress",
      "type": "error"
    },
    {
      "inputs": [],
      "name": "ZeroHash",
      "type": "error"
    },
    {
      "inputs": [],
      "name": "ZeroRate",
      "type": "error"
    },
    {
      "anonymous": false,
      "inputs": [
        {
          "indexed": true,
          "internalType": "uint256",
          "name": "jobId",
          "type": "uint256"
        },
        {
          "indexed": false,
          "internalType": "uint96",
          "name": "refundWei",
          "type": "uint96"
        }
      ],
      "name": "JobCancelled",
      "type": "event"
    },
    {
      "anonymous": false,
      "inputs": [
        {
          "indexed": true,
          "internalType": "uint256",
          "name": "jobId",
          "type": "uint256"
        },
        {
          "indexed": false,
          "internalType": "uint96",
          "name": "totalReleasedWei",
          "type": "uint96"
        }
      ],
      "name": "JobCompleted",
      "type": "event"
    },
    {
      "anonymous": false,
      "inputs": [
        {
          "indexed": true,
          "internalType": "uint256",
          "name": "jobId",
          "type": "uint256"
        },
        {
          "indexed": true,
          "internalType": "address",
          "name": "client",
          "type": "address"
        },
        {
          "indexed": false,
          "internalType": "bytes",
          "name": "params",
          "type": "bytes"
        }
      ],
      "name": "JobCreated",
      "type": "event"
    },
    {
      "anonymous": false,
      "inputs": [
        {
          "indexed": true,
          "internalType": "uint256",
          "name": "jobId",
          "type": "uint256"
        },
        {
          "indexed": true,
          "internalType": "address",
          "name": "agent",
          "type": "address"
        },
        {
          "indexed": false,
          "internalType": "uint96",
          "name": "amount",
          "type": "uint96"
        }
      ],
      "name": "JobFunded",
      "type": "event"
    },
    {
      "anonymous": false,
      "inputs": [
        {
          "indexed": true,
          "internalType": "uint256",
          "name": "jobId",
          "type": "uint256"
        },
        {
          "indexed": true,
          "internalType": "address",
          "name": "client",
          "type": "address"
        },
        {
          "indexed": false,
          "internalType": "bytes32",
          "name": "skillId",
          "type": "bytes32"
        },
        {
          "indexed": false,
          "internalType": "bytes32",
          "name": "jobDataHash",
          "type": "bytes32"
        }
      ],
      "name": "JobPosted",
      "type": "event"
    },
    {
      "anonymous": false,
      "inputs": [
        {
          "indexed": true,
          "internalType": "uint256",
          "name": "jobId",
          "type": "uint256"
        },
        {
          "indexed": false,
          "internalType": "bytes",
          "name": "evidence",
          "type": "bytes"
        }
      ],
      "name": "JobSubmitted",
      "type": "event"
    },
    {
      "anonymous": false,
      "inputs": [
        {
          "indexed": true,
          "internalType": "uint256",
          "name": "jobId",
          "type": "uint256"
        },
        {
          "indexed": false,
          "internalType": "bool",
          "name": "success",
          "type": "bool"
        },
        {
          "indexed": false,
          "internalType": "bytes",
          "name": "data",
          "type": "bytes"
        }
      ],
      "name": "JobTerminal",
      "type": "event"
    },
    {
      "anonymous": false,
      "inputs": [
        {
          "indexed": true,
          "internalType": "uint256",
          "name": "jobId",
          "type": "uint256"
        },
        {
          "indexed": true,
          "internalType": "uint8",
          "name": "milestoneIndex",
          "type": "uint8"
        },
        {
          "indexed": false,
          "internalType": "uint96",
          "name": "amountWei",
          "type": "uint96"
        },
        {
          "indexed": false,
          "internalType": "uint16",
          "name": "alignmentScore",
          "type": "uint16"
        }
      ],
      "name": "MilestoneApproved",
      "type": "event"
    },
    {
      "anonymous": false,
      "inputs": [
        {
          "indexed": true,
          "internalType": "uint256",
          "name": "jobId",
          "type": "uint256"
        },
        {
          "indexed": false,
          "internalType": "uint8",
          "name": "milestoneCount",
          "type": "uint8"
        }
      ],
      "name": "MilestoneDefined",
      "type": "event"
    },
    {
      "anonymous": false,
      "inputs": [
        {
          "indexed": true,
          "internalType": "uint256",
          "name": "jobId",
          "type": "uint256"
        },
        {
          "indexed": true,
          "internalType": "uint8",
          "name": "milestoneIndex",
          "type": "uint8"
        },
        {
          "indexed": false,
          "internalType": "uint96",
          "name": "refundWei",
          "type": "uint96"
        },
        {
          "indexed": false,
          "internalType": "uint16",
          "name": "alignmentScore",
          "type": "uint16"
        }
      ],
      "name": "MilestoneRejected",
      "type": "event"
    },
    {
      "anonymous": false,
      "inputs": [
        {
          "indexed": true,
          "internalType": "uint256",
          "name": "jobId",
          "type": "uint256"
        },
        {
          "indexed": true,
          "internalType": "uint8",
          "name": "milestoneIndex",
          "type": "uint8"
        },
        {
          "indexed": false,
          "internalType": "bytes32",
          "name": "outputHash",
          "type": "bytes32"
        },
        {
          "indexed": false,
          "internalType": "uint8",
          "name": "retryCount",
          "type": "uint8"
        }
      ],
      "name": "MilestoneSubmitted",
      "type": "event"
    },
    {
      "anonymous": false,
      "inputs": [
        {
          "indexed": true,
          "internalType": "uint256",
          "name": "jobId",
          "type": "uint256"
        },
        {
          "indexed": false,
          "internalType": "uint256",
          "name": "proposalIndex",
          "type": "uint256"
        },
        {
          "indexed": true,
          "internalType": "uint256",
          "name": "agentId",
          "type": "uint256"
        },
        {
          "indexed": false,
          "internalType": "uint96",
          "name": "budgetWei",
          "type": "uint96"
        }
      ],
      "name": "ProposalAccepted",
      "type": "event"
    },
    {
      "anonymous": false,
      "inputs": [
        {
          "indexed": true,
          "internalType": "uint256",
          "name": "jobId",
          "type": "uint256"
        },
        {
          "indexed": false,
          "internalType": "uint256",
          "name": "proposalIndex",
          "type": "uint256"
        },
        {
          "indexed": true,
          "internalType": "uint256",
          "name": "agentId",
          "type": "uint256"
        },
        {
          "indexed": false,
          "internalType": "uint96",
          "name": "proposedRateWei",
          "type": "uint96"
        }
      ],
      "name": "ProposalSubmitted",
      "type": "event"
    },
    {
      "inputs": [],
      "name": "APPROVAL_THRESHOLD",
      "outputs": [
        {
          "internalType": "uint256",
          "name": "",
          "type": "uint256"
        }
      ],
      "stateMutability": "view",
      "type": "function"
    },
    {
      "inputs": [],
      "name": "MAX_MILESTONES",
      "outputs": [
        {
          "internalType": "uint8",
          "name": "",
          "type": "uint8"
        }
      ],
      "stateMutability": "view",
      "type": "function"
    },
    {
      "inputs": [],
      "name": "MAX_RETRIES",
      "outputs": [
        {
          "internalType": "uint256",
          "name": "",
          "type": "uint256"
        }
      ],
      "stateMutability": "view",
      "type": "function"
    },
    {
      "inputs": [],
      "name": "STALE_JOB_TIMEOUT",
      "outputs": [
        {
          "internalType": "uint64",
          "name": "",
          "type": "uint64"
        }
      ],
      "stateMutability": "view",
      "type": "function"
    },
    {
      "inputs": [
        {
          "internalType": "uint256",
          "name": "jobId",
          "type": "uint256"
        },
        {
          "internalType": "uint256",
          "name": "proposalIndex",
          "type": "uint256"
        }
      ],
      "name": "acceptProposal",
      "outputs": [],
      "stateMutability": "payable",
      "type": "function"
    },
    {
      "inputs": [
        {
          "internalType": "address",
          "name": "",
          "type": "address"
        },
        {
          "internalType": "uint256",
          "name": "",
          "type": "uint256"
        }
      ],
      "name": "agentJobs",
      "outputs": [
        {
          "internalType": "uint256",
          "name": "",
          "type": "uint256"
        }
      ],
      "stateMutability": "view",
      "type": "function"
    },
    {
      "inputs": [],
      "name": "agentRegistry",
      "outputs": [
        {
          "internalType": "contract IAgentRegistry",
          "name": "",
          "type": "address"
        }
      ],
      "stateMutability": "view",
      "type": "function"
    },
    {
      "inputs": [],
      "name": "alignmentNodeVerifier",
      "outputs": [
        {
          "internalType": "address",
          "name": "",
          "type": "address"
        }
      ],
      "stateMutability": "view",
      "type": "function"
    },
    {
      "inputs": [
        {
          "internalType": "uint256",
          "name": "jobId",
          "type": "uint256"
        }
      ],
      "name": "cancelJob",
      "outputs": [],
      "stateMutability": "nonpayable",
      "type": "function"
    },
    {
      "inputs": [
        {
          "internalType": "uint256",
          "name": "jobId",
          "type": "uint256"
        }
      ],
      "name": "cancelStaleJob",
      "outputs": [],
      "stateMutability": "nonpayable",
      "type": "function"
    },
    {
      "inputs": [
        {
          "internalType": "address",
          "name": "",
          "type": "address"
        },
        {
          "internalType": "uint256",
          "name": "",
          "type": "uint256"
        }
      ],
      "name": "clientJobs",
      "outputs": [
        {
          "internalType": "uint256",
          "name": "",
          "type": "uint256"
        }
      ],
      "stateMutability": "view",
      "type": "function"
    },
    {
      "inputs": [
        {
          "internalType": "uint256",
          "name": "jobId",
          "type": "uint256"
        },
        {
          "internalType": "uint8[]",
          "name": "percentages",
          "type": "uint8[]"
        },
        {
          "internalType": "bytes32[]",
          "name": "criteriaHashes",
          "type": "bytes32[]"
        }
      ],
      "name": "defineMilestones",
      "outputs": [],
      "stateMutability": "nonpayable",
      "type": "function"
    },
    {
      "inputs": [],
      "name": "evaluator",
      "outputs": [
        {
          "internalType": "address",
          "name": "",
          "type": "address"
        }
      ],
      "stateMutability": "view",
      "type": "function"
    },
    {
      "inputs": [
        {
          "internalType": "address",
          "name": "agentWallet",
          "type": "address"
        }
      ],
      "name": "getAgentJobs",
      "outputs": [
        {
          "internalType": "uint256[]",
          "name": "",
          "type": "uint256[]"
        }
      ],
      "stateMutability": "view",
      "type": "function"
    },
    {
      "inputs": [
        {
          "internalType": "address",
          "name": "client",
          "type": "address"
        }
      ],
      "name": "getClientJobs",
      "outputs": [
        {
          "internalType": "uint256[]",
          "name": "",
          "type": "uint256[]"
        }
      ],
      "stateMutability": "view",
      "type": "function"
    },
    {
      "inputs": [
        {
          "internalType": "uint256",
          "name": "jobId",
          "type": "uint256"
        }
      ],
      "name": "getJob",
      "outputs": [
        {
          "components": [
            {
              "internalType": "address",
              "name": "client",
              "type": "address"
            },
            {
              "internalType": "uint64",
              "name": "agentId",
              "type": "uint64"
            },
            {
              "internalType": "enum ProgressiveEscrow.JobStatus",
              "name": "status",
              "type": "uint8"
            },
            {
              "internalType": "uint8",
              "name": "milestoneCount",
              "type": "uint8"
            },
            {
              "internalType": "address",
              "name": "agentWallet",
              "type": "address"
            },
            {
              "internalType": "uint96",
              "name": "totalBudgetWei",
              "type": "uint96"
            },
            {
              "internalType": "uint96",
              "name": "releasedWei",
              "type": "uint96"
            },
            {
              "internalType": "uint64",
              "name": "createdAt",
              "type": "uint64"
            },
            {
              "internalType": "bytes32",
              "name": "skillId",
              "type": "bytes32"
            },
            {
              "internalType": "bytes32",
              "name": "jobDataHash",
              "type": "bytes32"
            }
          ],
          "internalType": "struct ProgressiveEscrow.Job",
          "name": "",
          "type": "tuple"
        }
      ],
      "stateMutability": "view",
      "type": "function"
    },
    {
      "inputs": [
        {
          "internalType": "uint256",
          "name": "jobId",
          "type": "uint256"
        }
      ],
      "name": "getJobState",
      "outputs": [
        {
          "internalType": "enum ProgressiveEscrow.ERC8183State",
          "name": "",
          "type": "uint8"
        }
      ],
      "stateMutability": "view",
      "type": "function"
    },
    {
      "inputs": [
        {
          "internalType": "uint256",
          "name": "jobId",
          "type": "uint256"
        },
        {
          "internalType": "uint8",
          "name": "index",
          "type": "uint8"
        }
      ],
      "name": "getMilestone",
      "outputs": [
        {
          "components": [
            {
              "internalType": "uint96",
              "name": "amountWei",
              "type": "uint96"
            },
            {
              "internalType": "uint16",
              "name": "alignmentScore",
              "type": "uint16"
            },
            {
              "internalType": "uint8",
              "name": "percentage",
              "type": "uint8"
            },
            {
              "internalType": "uint8",
              "name": "retryCount",
              "type": "uint8"
            },
            {
              "internalType": "enum ProgressiveEscrow.MilestoneStatus",
              "name": "status",
              "type": "uint8"
            },
            {
              "internalType": "uint48",
              "name": "submittedAt",
              "type": "uint48"
            },
            {
              "internalType": "uint48",
              "name": "completedAt",
              "type": "uint48"
            },
            {
              "internalType": "bytes32",
              "name": "criteriaHash",
              "type": "bytes32"
            },
            {
              "internalType": "bytes32",
              "name": "outputHash",
              "type": "bytes32"
            }
          ],
          "internalType": "struct ProgressiveEscrow.Milestone",
          "name": "",
          "type": "tuple"
        }
      ],
      "stateMutability": "view",
      "type": "function"
    },
    {
      "inputs": [
        {
          "internalType": "uint256",
          "name": "jobId",
          "type": "uint256"
        }
      ],
      "name": "getMilestones",
      "outputs": [
        {
          "components": [
            {
              "internalType": "uint96",
              "name": "amountWei",
              "type": "uint96"
            },
            {
              "internalType": "uint16",
              "name": "alignmentScore",
              "type": "uint16"
            },
            {
              "internalType": "uint8",
              "name": "percentage",
              "type": "uint8"
            },
            {
              "internalType": "uint8",
              "name": "retryCount",
              "type": "uint8"
            },
            {
              "internalType": "enum ProgressiveEscrow.MilestoneStatus",
              "name": "status",
              "type": "uint8"
            },
            {
              "internalType": "uint48",
              "name": "submittedAt",
              "type": "uint48"
            },
            {
              "internalType": "uint48",
              "name": "completedAt",
              "type": "uint48"
            },
            {
              "internalType": "bytes32",
              "name": "criteriaHash",
              "type": "bytes32"
            },
            {
              "internalType": "bytes32",
              "name": "outputHash",
              "type": "bytes32"
            }
          ],
          "internalType": "struct ProgressiveEscrow.Milestone[]",
          "name": "",
          "type": "tuple[]"
        }
      ],
      "stateMutability": "view",
      "type": "function"
    },
    {
      "inputs": [],
      "name": "getOpenJobs",
      "outputs": [
        {
          "internalType": "uint256[]",
          "name": "",
          "type": "uint256[]"
        }
      ],
      "stateMutability": "view",
      "type": "function"
    },
    {
      "inputs": [
        {
          "internalType": "uint256",
          "name": "jobId",
          "type": "uint256"
        }
      ],
      "name": "getProposals",
      "outputs": [
        {
          "components": [
            {
              "internalType": "uint64",
              "name": "agentId",
              "type": "uint64"
            },
            {
              "internalType": "address",
              "name": "agentOwner",
              "type": "address"
            },
            {
              "internalType": "bool",
              "name": "accepted",
              "type": "bool"
            },
            {
              "internalType": "uint96",
              "name": "proposedRateWei",
              "type": "uint96"
            },
            {
              "internalType": "uint64",
              "name": "submittedAt",
              "type": "uint64"
            },
            {
              "internalType": "bytes32",
              "name": "descriptionHash",
              "type": "bytes32"
            }
          ],
          "internalType": "struct ProgressiveEscrow.Proposal[]",
          "name": "",
          "type": "tuple[]"
        }
      ],
      "stateMutability": "view",
      "type": "function"
    },
    {
      "inputs": [
        {
          "internalType": "uint256",
          "name": "",
          "type": "uint256"
        }
      ],
      "name": "jobLastActivityAt",
      "outputs": [
        {
          "internalType": "uint64",
          "name": "",
          "type": "uint64"
        }
      ],
      "stateMutability": "view",
      "type": "function"
    },
    {
      "inputs": [
        {
          "internalType": "uint256",
          "name": "",
          "type": "uint256"
        },
        {
          "internalType": "uint256",
          "name": "",
          "type": "uint256"
        }
      ],
      "name": "jobMilestones",
      "outputs": [
        {
          "internalType": "uint96",
          "name": "amountWei",
          "type": "uint96"
        },
        {
          "internalType": "uint16",
          "name": "alignmentScore",
          "type": "uint16"
        },
        {
          "internalType": "uint8",
          "name": "percentage",
          "type": "uint8"
        },
        {
          "internalType": "uint8",
          "name": "retryCount",
          "type": "uint8"
        },
        {
          "internalType": "enum ProgressiveEscrow.MilestoneStatus",
          "name": "status",
          "type": "uint8"
        },
        {
          "internalType": "uint48",
          "name": "submittedAt",
          "type": "uint48"
        },
        {
          "internalType": "uint48",
          "name": "completedAt",
          "type": "uint48"
        },
        {
          "internalType": "bytes32",
          "name": "criteriaHash",
          "type": "bytes32"
        },
        {
          "internalType": "bytes32",
          "name": "outputHash",
          "type": "bytes32"
        }
      ],
      "stateMutability": "view",
      "type": "function"
    },
    {
      "inputs": [
        {
          "internalType": "uint256",
          "name": "",
          "type": "uint256"
        },
        {
          "internalType": "uint256",
          "name": "",
          "type": "uint256"
        }
      ],
      "name": "jobProposals",
      "outputs": [
        {
          "internalType": "uint64",
          "name": "agentId",
          "type": "uint64"
        },
        {
          "internalType": "address",
          "name": "agentOwner",
          "type": "address"
        },
        {
          "internalType": "bool",
          "name": "accepted",
          "type": "bool"
        },
        {
          "internalType": "uint96",
          "name": "proposedRateWei",
          "type": "uint96"
        },
        {
          "internalType": "uint64",
          "name": "submittedAt",
          "type": "uint64"
        },
        {
          "internalType": "bytes32",
          "name": "descriptionHash",
          "type": "bytes32"
        }
      ],
      "stateMutability": "view",
      "type": "function"
    },
    {
      "inputs": [
        {
          "internalType": "uint256",
          "name": "",
          "type": "uint256"
        }
      ],
      "name": "jobs",
      "outputs": [
        {
          "internalType": "address",
          "name": "client",
          "type": "address"
        },
        {
          "internalType": "uint64",
          "name": "agentId",
          "type": "uint64"
        },
        {
          "internalType": "enum ProgressiveEscrow.JobStatus",
          "name": "status",
          "type": "uint8"
        },
        {
          "internalType": "uint8",
          "name": "milestoneCount",
          "type": "uint8"
        },
        {
          "internalType": "address",
          "name": "agentWallet",
          "type": "address"
        },
        {
          "internalType": "uint96",
          "name": "totalBudgetWei",
          "type": "uint96"
        },
        {
          "internalType": "uint96",
          "name": "releasedWei",
          "type": "uint96"
        },
        {
          "internalType": "uint64",
          "name": "createdAt",
          "type": "uint64"
        },
        {
          "internalType": "bytes32",
          "name": "skillId",
          "type": "bytes32"
        },
        {
          "internalType": "bytes32",
          "name": "jobDataHash",
          "type": "bytes32"
        }
      ],
      "stateMutability": "view",
      "type": "function"
    },
    {
      "inputs": [
        {
          "internalType": "bytes32",
          "name": "jobDataHash",
          "type": "bytes32"
        },
        {
          "internalType": "bytes32",
          "name": "skillId",
          "type": "bytes32"
        }
      ],
      "name": "postJob",
      "outputs": [
        {
          "internalType": "uint256",
          "name": "jobId",
          "type": "uint256"
        }
      ],
      "stateMutability": "nonpayable",
      "type": "function"
    },
    {
      "inputs": [
        {
          "internalType": "uint256",
          "name": "jobId",
          "type": "uint256"
        },
        {
          "internalType": "uint8",
          "name": "milestoneIndex",
          "type": "uint8"
        },
        {
          "internalType": "bytes32",
          "name": "outputHash",
          "type": "bytes32"
        },
        {
          "internalType": "uint16",
          "name": "alignmentScore",
          "type": "uint16"
        },
        {
          "internalType": "bytes",
          "name": "signature",
          "type": "bytes"
        }
      ],
      "name": "releaseMilestone",
      "outputs": [],
      "stateMutability": "nonpayable",
      "type": "function"
    },
    {
      "inputs": [
        {
          "internalType": "uint256",
          "name": "jobId",
          "type": "uint256"
        },
        {
          "internalType": "uint256",
          "name": "agentId",
          "type": "uint256"
        },
        {
          "internalType": "uint96",
          "name": "proposedRateWei",
          "type": "uint96"
        },
        {
          "internalType": "bytes32",
          "name": "descriptionHash",
          "type": "bytes32"
        }
      ],
      "name": "submitProposal",
      "outputs": [],
      "stateMutability": "nonpayable",
      "type": "function"
    },
    {
      "inputs": [],
      "name": "totalJobs",
      "outputs": [
        {
          "internalType": "uint256",
          "name": "",
          "type": "uint256"
        }
      ],
      "stateMutability": "view",
      "type": "function"
    }
  ],
  "bytecode": "0x60a034620000ea57601f62002f4d38819003918201601f19168301916001600160401b03831184841017620000ef578084926040948552833981010312620000ea576200005a6020620000528362000105565b920162000105565b6001600081905580556001600160a01b0391821680158015620000df575b620000cd576080521660018060a01b03196009541617600955604051612e3290816200011b823960805181818161027b0152818161083f01528181610baf01528181611b3b01528181611cc701526122970152f35b60405163d92e233d60e01b8152600490fd5b508282161562000078565b600080fd5b634e487b7160e01b600052604160045260246000fd5b51906001600160a01b0382168203620000ea5756fe608080604052600436101561001357600080fd5b600090813560e01c908163056da8df146122bb575080630d1cfcae146122775780631321c95e14612201578063180aedf31461214d5780631ace87b31461212b5780631dffa3dc14611fe35780632c72fdfc14611e815780632ebd76041461075d5780633ab3429014611e645780633fb200c2146116d457806342c549c01461160e57806346ebbdb0146115f25780634c05abeb146115d657806353bc1c12146115905780635713f9ae146113b85780635b213d2214610f7c57806373a2b57f14610ec7578063894b9ba714610b485780638c079d6514610ad55780638cc14d0514610a445780638facd859146109fc5780639514bb75146107845780639cb93dd11461075d578063bf22c4571461058a578063cf2646c214610503578063d801fd2d146104ad578063e1e1d5ca146101b4578063f5d4a28a146101965763fd8d9e771461016057600080fd5b346101935760203660031901126101935767ffffffffffffffff60406020926004358152600a8452205416604051908152f35b80fd5b5034610193578060031936011261019357602060405162093a808152f35b506101be3661246e565b906101c76127b4565b8083526002602052604083208054906001600160a01b0391828116330361049b5760e01c60ff1660068110156104875761047557828552600460205260408520548410156104635782855260046020526102248460408720612484565b5093845460ff8160e01c16610451576001600160601b039586600182015416340361043f5786341161043f5760405163784c53d760e11b815267ffffffffffffffff838116600483015291906101a09081816024817f00000000000000000000000000000000000000000000000000000000000000008c165afa918215610434578b92610407575b50506080810151156103f55760e0019486865116156103e3578793600160e01b60ff60e01b1981921617808455825490898951169b34169b3460a01b73ffffffffffffffffffffffffffffffffffffffff191617600185015560a01b7bffffffffffffffff000000000000000000000000000000000000000016907fffffff000000000000000000ffffffffffffffffffffffffffffffffffffffff161717905561035683612a4d565b85855116895260066020528260408a20906103709161251b565b54604080519485526001600160601b03891660208601529116927ff239d6ac1d4c40d92711105f87885001340f830846d5db9f886f41cfd75b6c489190a351169160405190815260207fd2fdaeb95d3de90984cdc17eeeddb88dd5329cd8a09bdf4f617fee1dcaae037d91a36001815580f35b60405163d92e233d60e01b8152600490fd5b60405163ba32abe160e01b8152600490fd5b6104269250803d1061042d575b61041e81836125e7565b8101906126a1565b38806102ac565b503d610414565b6040513d8d823e3d90fd5b60405163dd8e4af760e01b8152600490fd5b60405163a5e98d0760e01b8152600490fd5b604051632a289da360e01b8152600490fd5b60405163d76ebd0f60e01b8152600490fd5b634e487b7160e01b86526021600452602486fd5b604051630836f21d60e21b8152600490fd5b5034610193576040366003190112610193576104c76124b6565b6001600160a01b03168152600660205260408120805460243592908310156101935760206104f58484612503565b90546040519160031b1c8152f35b503461019357602080600319360112610586576001600160a01b036105266124b6565b1682526005815260408220916040518092808554928381520194835280832092905b82821061056f5761056b8561055f818903826125e7565b604051918291826123f5565b0390f35b835486529485019460019384019390910190610548565b5080fd5b503461019357602036600319011261019357806101206040516105ac81612592565b8281528260208201528260408201528260608201528260808201528260a08201528260c08201528260e0820152826101008201520152600435815260026020526040812090604051906105fe82612592565b8254906001600160a01b038216835267ffffffffffffffff8260a01c16602084015260ff8260e01c1690600682101561074957509260ff60049261014095604086015260e81c16606084015260018101546001600160a01b038116608085015260a01c60a084015267ffffffffffffffff60028201546001600160601b03811660c086015260601c1660e084015260038101546101008401520154610120820152610120604051916001600160a01b03815116835267ffffffffffffffff60208201511660208401526106d960408201516040850190612430565b60ff60608201511660608401526001600160a01b0360808201511660808401526001600160601b0360a08201511660a08401526001600160601b0360c08201511660c084015267ffffffffffffffff60e08201511660e08401526101008101516101008401520151610120820152f35b634e487b7160e01b81526021600452602490fd5b503461019357806003193601126101935760206001600160a01b0360095416604051908152f35b50346101935760208060031936011261058657600435906107a36127b4565b81835260028152604083208054906001600160a01b03808316330361049b5760ff8360e01c1660068110156109e8576002036109d657848652600a845267ffffffffffffffff91828060408920541680156109c6575b1662093a8081018091116109b057421061099e57869260018201546001600160601b0390816002850154169060a01c03169460ff60e01b19600160e21b911617808355837f000000000000000000000000000000000000000000000000000000000000000016600384015490803b1561099a57604051632f4735f360e01b815260a09390931c939093166004830152600060248301819052604483015260648201529084908290608490829084905af190811561098f578491610977575b505083610945575b5050508161093b604092857f05a641aba4eb0a0803ac3fdc674ba47b4a45b87b4365bb89ca265b5cec8c43407fbaa97f85d711e94a84b6271d822fbbb222bd432baa1810752d91cf694d8de6ff968651848152a283519083820152828152610926816125af565b83519384938885528401526040830190612609565b0390a26001815580f35b82848193829354165af1610957612836565b5015610965578338806108bf565b604051633c31275160e21b8152600490fd5b6109809061257e565b61098b5782386108b7565b8280fd5b6040513d86823e3d90fd5b8680fd5b604051637739583560e11b8152600490fd5b634e487b7160e01b600052601160045260246000fd5b5080600283015460601c166107f9565b60405163823ac53d60e01b8152600490fd5b634e487b7160e01b87526021600452602487fd5b503461019357604036600319011261019357610a166124b6565b6001600160a01b03168152600560205260408120805460243592908310156101935760206104f58484612503565b503461019357610a533661246e565b919081526004602052604081209081548310156101935760c0610a768484612484565b50805460026001830154920154906040519260ff67ffffffffffffffff9283811686526001600160a01b038160401c16602087015260e01c16151560408501526001600160601b038116606085015260601c16608083015260a0820152f35b503461019357602080600319360112610586576001600160a01b03610af86124b6565b1682526006815260408220916040518092808554928381520194835280832092905b828210610b315761056b8561055f818903826125e7565b835486529485019460019384019390910190610b1a565b503461019357608036600319011261019357600435906024918235906044356001600160601b0380821695868303610ec357838652602096600288526040872060ff815460e01c166006811015610eb057610475578115610e9e576001600160a01b0390817f000000000000000000000000000000000000000000000000000000000000000016916040519063784c53d760e11b82528960048301526101a09182818881885afa928315610e93578c93610e74575b50508151163303610e625760800151156103f55760038a91015480610dd1575b50505084875260048852604087209788549360405190610c3c82612562565b67ffffffffffffffff92838a1683528201338152604083018b8152606084019586526080840193854216855260a081019d8e6064359052680100000000000000008a1015610dbe5789610c9491600182018155612484565b989098610dac57505187549251915160ff60e01b90151560e01b167bffffffffffffffffffffffffffffffffffffffff0000000000000000604093841b169187167fffffff000000000000000000000000000000000000000000000000000000000090941693909317179190911786559351600186018054935173ffffffffffffffff000000000000000000000000951660601b9490941673ffffffffffffffffffffffffffffffffffffffff19909316911673ffffffffffffffff000000000000000000000000191617179055965160029091015585519081526001600160601b039190911660208201529293919290917fa3dec8184e1ae0987ab8da0efc7c4cfb2e32d68030f25c4cac7ce65a5530219691a380f35b634e487b7160e01b8e5260048e90528dfd5b634e487b7160e01b8e526041600452888efd5b60446040518094819363039e78fd60e11b83528c6004840152888301525afa908115610e57578891610e1e575b5015610e0c57388881610c1d565b604051630bfec77160e41b8152600490fd5b90508881813d8311610e50575b610e3581836125e7565b81010312610e4c57610e469061267f565b38610dfe565b8780fd5b503d610e2b565b6040513d8a823e3d90fd5b604051630e41dcbf60e21b8152600490fd5b610e8b929350803d1061042d5761041e81836125e7565b903880610bfd565b6040513d8e823e3d90fd5b6040516314cee7cd60e11b8152600490fd5b634e487b7160e01b895260216004528389fd5b8580fd5b503461019357610ed63661246e565b9190815260036020526040812090815483101561019357610120610efa8484612484565b50805460ff8160801c16916002600182015491015491604051936001600160601b038216855261ffff8260601c16602086015260ff8260701c16604086015260ff8260781c166060860152610f4e81612359565b608085015265ffffffffffff90818160881c1660a086015260b81c1660c084015260e0830152610100820152f35b50346101935760603660031901126101935760243567ffffffffffffffff811161058657610fae90369060040161243d565b9060443567ffffffffffffffff81116113b457610fcf90369060040161243d565b60043585526002602052604085209283546001600160a01b038116330361049b57600660ff8260e01c1610156109e85760ff60019160e01c16036113a25784158015611398575b611386578185036113745760043586526003602052604086206001850154928794885b8881106110f45789898960648a036110e25780547fffff0000ffffffffffffffffffffffffffffffffffffffffffffffffffffffff1660e883901b60ff60e81b1617600160e11b179055600435808352600a60209081526040808520805467ffffffffffffffff19164267ffffffffffffffff161790555160ff93909316835290917f27239def8da3acb1dad88fd6e345a7fc2fe2227f5c8319c43c506f2df8581ce59190a280f35b60405163a3ab388760e01b8152600490fd5b6110ff818a8761280a565b359660ff881688036113705760ff88161561135e5760ff881601968660a01c60ff82168860a01c020460ff8216148760a01c15171561134a5761114382858561280a565b3560ff6040519261115384612545565b6001600160601b0360648383168c60a01c02041684528d60208501521660408301528b60608301528b60808301528b60a08301528b60c083015260e08201528a610100820152845468010000000000000000811015611336578060016111bc9201875586612484565b9190916113225780518254602083015160408401516060808601516fff00000000000000000000000000000060789190911b166eff000000000000000000000000000060709390931b929092166fffffffffffffffffffffffffffffffff199094166001600160601b03909516949094179190931b6dffff00000000000000000000000016171717825560808101516001939291600291610100919061126181612359565b61126a81612359565b845460a08301517fffffffffffffffffff00000000000000ffffffffffffffffffffffffffffffff90911660809290921b70ff00000000000000000000000000000000169190911760889190911b65ffffffffffff60881b1617845561130e65ffffffffffff60c083015186547fffffff000000000000ffffffffffffffffffffffffffffffffffffffffffffff16911660b81b65ffffffffffff60b81b16178555565b60e081015186850155015191015501611039565b634e487b7160e01b8c5260048c905260248cfd5b634e487b7160e01b8c52604160045260248cfd5b634e487b7160e01b8b52601160045260248bfd5b6040516334317a2960e01b8152600490fd5b8a80fd5b60405163512509d360e11b8152600490fd5b604051633e4932f960e21b8152600490fd5b50600a8511611016565b60405163b87f3be160e01b8152600490fd5b8380fd5b503461019357604036600319011261019357600435602435811561157e576001549160018301600155828452602093600285528160046040832080547fffffff00ffffffffffffffff000000000000000000000000000000000000000060ff60e01b193316911617815561146e67ffffffffffffffff4216600283019073ffffffffffffffff0000000000000000000000001973ffffffffffffffff00000000000000000000000083549260601b169116179055565b85600382015501553381526005855261148a846040832061251b565b6007546801000000000000000081101561156857846114b28260016114cb94016007556124cc565b90919082549060031b91821b91600019901b1916179055565b6040600754918581526008875220556040518281528185820152837f2520217d1d08489bb89d6393e8f4e5b02287bb779ac973fc380694b1ae625f4560403393a36040519184830152604082015260408152611526816125cb565b817ff2a56eb4fa7e77d296b016a96d54a5ce8d148c0dd1901c05a1fee63a6b7206a36040518581528061155d339588830190612609565b0390a3604051908152f35b634e487b7160e01b600052604160045260246000fd5b60405163f1ae58d560e01b8152600490fd5b5034610193576020366003190112610193576115ad600435612d19565b6040519060048110156115c257602092508152f35b634e487b7160e01b83526021600452602483fd5b50346101935780600319360112610193576020604051600a8152f35b5034610193578060031936011261019357602060405160058152f35b503461019357602090816003193601126101935790600435825260038082526040832090815461163d81612de4565b9161164b60405193846125e7565b8183528483018094875285872087915b8483106116ae5750505050506040519280840191818552518092526040840192945b82811061168a5784840385f35b909192826101208261169f6001948a51612379565b0196019101949291909461167d565b83886001926116c1859c9b999a9c612d5b565b815201920192019190979594969761165b565b50346101935760a0366003190112610193576116ee612344565b61ffff60643516606435036105865767ffffffffffffffff60843511610586573660236084350112156105865767ffffffffffffffff608435600401351161058657366024608435600401356084350101116105865761174c6127b4565b600435825260026020526040822060018101906001600160a01b038254163303611e5357805460ff8160e01c16600681101561048757600203611e415760ff9060e81c1660ff84161015611e2f5761271061ffff6064351611611e1d57600435845260036020526117c08360408620612484565b50805460ff8160801c166117d381612359565b8015159081611e08575b50611df65760ff60059160781c161015611de457604051600435602082015260ff8516604082015261ffff6064351660608201526044356080820152608081528060a081011067ffffffffffffffff60a083011117611dd0576118d48160a06118dc930160405260a0815160208301209160c08101927f19457468657265756d205369676e6564204d6573736167653a0a333200000000845260dc820152603c8282015261188c8282016125cb565b0151902061189f6084356004013561281a565b906118ad60405192836125e7565b60843560048101358084529060240160208401378860206084356004013584010152612986565b919091612866565b6001600160a01b038060095416911603611dbe57604435600282015580546dffff000000000000000000000000191660643560601b6dffff0000000000000000000000001617815580547fffffffffffffffffff000000000000ffffffffffffffffffffffffffffffffff164260881b65ffffffffffff60881b1617815580546fff000000000000000000000000000000198116607891821c60ff1660010190911b6fff000000000000000000000000000000161781556004358552600a6020526040852067ffffffffffffffff421667ffffffffffffffff198254161790558054604051604435815260ff8260781c16602082015260ff8616907fc71c29f6ee5314dd16fcc4e6ecfd8ff20362a70b1c2a0d98b30fa80260950f3a604060043592a360405160ff86166020820152604435604082015261ffff6064351660608201526060815280608081011067ffffffffffffffff608083011117611daa579081608088949301604052602060808201527f1062d5b8f3220844357466174ea36c56bce23a7c7f01c3736b0018831627b758600435916080607f1982611a8660a0820182612609565b03019101a2611f4060643561ffff1610611c44575080547fffffff000000000000ffffffffffff00ffffffffffffffffffffffffffffffff164260b81b65ffffffffffff60b81b16177002000000000000000000000000000000001781558190819081906001600160a01b036001600160601b03809254169788926002890190815490858183160116906001600160601b03191617905554165af1611b29612836565b5015611c325783906001600160a01b037f00000000000000000000000000000000000000000000000000000000000000001690600367ffffffffffffffff825460a01c16910154823b156113b45760848492836040519586948593632f4735f360e01b855260048501528960248501526001604485015260648401525af18015611c2757611c13575b5050604080516001600160601b0392909216825260643561ffff16602083015260ff9290921691600435917f4b2194134ee31a9e63781c573aff9bbc1e8bcaa0a4c64cc1456ae354743207e99190a3611c0c600435612b12565b6001815580f35b611c1c9061257e565b61098b578238611bb2565b6040513d84823e3d90fd5b6040516312171d8360e31b8152600490fd5b7fffffff000000000000ffffffffffff00ffffffffffffffffffffffffffffffff164260b81b65ffffffffffff60b81b16177003000000000000000000000000000000001781559192506001600160601b0391905054169083808080856001600160a01b038654165af1611cb6612836565b501561096557836001600160a01b037f000000000000000000000000000000000000000000000000000000000000000016600367ffffffffffffffff845460a01c1693015490803b1561098b57604051632f4735f360e01b81526004810194909452600060248501819052604485015260648401919091528290608490829084905af1801561098f57611d97575b50604080516001600160601b0392909216825260643561ffff16602083015260ff9290921691600435917f27446bb81b2fdb979297d26a54c5b35bbb0ccc5e5efda1dadb8ba88c5329d9949190a3611c0c565b611da39093919361257e565b9138611d44565b634e487b7160e01b87526041600452602487fd5b604051638baa579f60e01b8152600490fd5b634e487b7160e01b86526041600452602486fd5b604051632e2d137760e11b8152600490fd5b60405163452ca09960e01b8152600490fd5b60049150611e1581612359565b1415386117dd565b604051631556136560e01b8152600490fd5b60405163fdf4d87360e01b8152600490fd5b60405163345d337f60e11b8152600490fd5b6040516249a9c760e91b8152600490fd5b50346101935780600319360112610193576020604051611f408152f35b503461019357602090816003193601126101935790600435825260048152604082208054611eae81612de4565b90611ebc60405192836125e7565b8082528382018093865284862086915b838310611f6557505050506040519280840191818552518092526040840192945b828110611efa5784840385f35b8551805167ffffffffffffffff9081168652818401516001600160a01b0316868501526040808301511515908701526060808301516001600160601b0316908701526080808301519091169086015260a090810151908501529481019460c090930192600101611eed565b60038760019260409a9997989a51611f7c81612562565b855460ff67ffffffffffffffff9182811684526001600160a01b038160401c168685015260e01c16151560408301528587015460606001600160601b038216818501521c166080820152600286015460a08201528152019201920191909694939596611ecc565b50346101935760208060031936011261058657600435906120026127b4565b81835260028152604083208054906001600160a01b0390818316330361049b5760ff8360e01c166006811015806121175781159182159081612108575b506120f757600183015460a01c6001600160601b0390816002860154169003169460ff60e01b19600160e21b91161783556109e857908692916120e9575b83610945575050508161093b604092857f05a641aba4eb0a0803ac3fdc674ba47b4a45b87b4365bb89ca265b5cec8c43407fbaa97f85d711e94a84b6271d822fbbb222bd432baa1810752d91cf694d8de6ff968651848152a283519083820152828152610926816125af565b6120f286612a4d565b61207d565b60405162cce94160e51b8152600490fd5b9150506001889114153861203f565b634e487b7160e01b88526021600452602488fd5b5034610193578060031936011261019357602060001960015401604051908152f35b503461019357602036600319011261019357604061014091600435815260026020522080546001820154916002810154916004600383015492015492604051946001600160a01b03808416875260ff67ffffffffffffffff94858160a01c1660208a01526121c360408a01838360e01c16612430565b60e81c1660608801528116608087015260a01c60a08601526001600160601b03811660c086015260601c1660e0840152610100830152610120820152f35b5034610193578060031936011261019357604051600780548083529083526020808301937fa66cc928b5edb82af9bd49922954155ab7b0942694bea4ce44661d9a8736c68892915b8282106122605761056b8561055f818903826125e7565b835486529485019460019384019390910190612249565b503461019357806003193601126101935760206040516001600160a01b037f0000000000000000000000000000000000000000000000000000000000000000168152f35b9050346105865760403660031901126105865761232f61233591604084610120956101006122e7612344565b946122f181612545565b82815282602082015282858201528260608201528260808201528260a08201528260c08201528260e082015201526004358152600360205220612484565b50612d5b565b6123426040518092612379565bf35b6024359060ff8216820361235457565b600080fd5b6005111561236357565b634e487b7160e01b600052602160045260246000fd5b6001600160601b03815116825261ffff602082015116602083015260ff604082015116604083015260ff606082015116606083015260808101516123bc81612359565b608083015265ffffffffffff8060a08301511660a084015260c08201511660c083015260e081015160e083015261010080910151910152565b6020908160408183019282815285518094520193019160005b82811061241c575050505090565b83518552938101939281019260010161240e565b9060068210156123635752565b9181601f840112156123545782359167ffffffffffffffff8311612354576020808501948460051b01011161235457565b6040906003190112612354576004359060243590565b80548210156124a0576000526003602060002091020190600090565b634e487b7160e01b600052603260045260246000fd5b600435906001600160a01b038216820361235457565b6007548110156124a05760076000527fa66cc928b5edb82af9bd49922954155ab7b0942694bea4ce44661d9a8736c6880190600090565b80548210156124a05760005260206000200190600090565b908154916801000000000000000083101561156857826114b291600161254395018155612503565b565b610120810190811067ffffffffffffffff82111761156857604052565b60c0810190811067ffffffffffffffff82111761156857604052565b67ffffffffffffffff811161156857604052565b610140810190811067ffffffffffffffff82111761156857604052565b6040810190811067ffffffffffffffff82111761156857604052565b6060810190811067ffffffffffffffff82111761156857604052565b90601f8019910116810190811067ffffffffffffffff82111761156857604052565b919082519283825260005b848110612635575050826000602080949584010152601f8019910116010190565b602081830181015184830182015201612614565b51906001600160a01b038216820361235457565b519065ffffffffffff8216820361235457565b519061ffff8216820361235457565b5190811515820361235457565b519067ffffffffffffffff8216820361235457565b80916101a092839103126123545760405191820182811067ffffffffffffffff821117611568576040526126d481612649565b82526126e26020820161265d565b60208301526126f360408201612670565b604083015261270460608201612670565b60608301526127156080820161267f565b608083015260a081015160a083015260c081015160c083015261273a60e08201612649565b60e083015261010061274d81830161268c565b90830152610120808201519063ffffffff821682036123545783015261014061277781830161268c565b9083015261016080820151906fffffffffffffffffffffffffffffffff82168203612354578301526127ad61018080920161265d565b9082015290565b6002600054146127c5576002600055565b60405162461bcd60e51b815260206004820152601f60248201527f5265656e7472616e637947756172643a207265656e7472616e742063616c6c006044820152606490fd5b91908110156124a05760051b0190565b67ffffffffffffffff811161156857601f01601f191660200190565b3d15612861573d906128478261281a565b9161285560405193846125e7565b82523d6000602084013e565b606090565b61286f81612359565b806128775750565b61288081612359565b600181036128cd5760405162461bcd60e51b815260206004820152601860248201527f45434453413a20696e76616c6964207369676e617475726500000000000000006044820152606490fd5b6128d681612359565b600281036129235760405162461bcd60e51b815260206004820152601f60248201527f45434453413a20696e76616c6964207369676e6174757265206c656e677468006044820152606490fd5b8061292f600392612359565b1461293657565b60405162461bcd60e51b815260206004820152602260248201527f45434453413a20696e76616c6964207369676e6174757265202773272076616c604482015261756560f01b6064820152608490fd5b9060418151146000146129b4576129b0916020820151906060604084015193015160001a906129be565b9091565b5050600090600290565b9291907f7fffffffffffffffffffffffffffffff5d576e7357a4501ddfe92f46681b20a08311612a415791608094939160ff602094604051948552168484015260408301526060820152600093849182805260015afa15612a345781516001600160a01b03811615612a2e579190565b50600190565b50604051903d90823e3d90fd5b50505050600090600390565b600090808252600860205260408220548015612b0d57600019908181018260075401808203612ac1575b5050506007548015612aad57810190612a8f826124cc565b909182549160031b1b19169055600755815260086020526040812055565b634e487b7160e01b84526031600452602484fd5b612acb83916124cc565b90549060031b1c91612ae0836114b2836124cc565b11612af957845260086020526040842055388080612a77565b634e487b7160e01b85526011600452602485fd5b505050565b6000818152600260208181526040918284209360038084528482206001908392815491855b838110612c945750505050600014612be35750506001600160601b03612bde917fbaa97f85d711e94a84b6271d822fbbb222bd432baa1810752d91cf694d8de6ff95600360e01b60ff60e01b19825416178155015416857fc148f492ad56a336ed32ded45465fde341420c21038d99884184b127b38262eb848651848152a283519083820152828152612bc9816125af565b83805194859460018652850152830190612609565b0390a2565b93909293612bf4575b505050505050565b6001600160601b03612c86927fbaa97f85d711e94a84b6271d822fbbb222bd432baa1810752d91cf694d8de6ff96600560e01b60ff60e01b1982541617815501541690867fc148f492ad56a336ed32ded45465fde341420c21038d99884184b127b38262eb868351858152a280519185830152848252612c73826125af565b8080519586958652850152830190612609565b0390a2388080808080612bec565b60ff612ca08284612484565b505460801c16612caf81612359565b80158015612d06575b612cf757612cc581612359565b888103612cef575b80612cd88592612359565b14612ce6575b600101612b37565b60019550612cde565b879550612ccd565b50505050505050505050505050565b50612d1081612359565b60048114612cb8565b600052600260205260ff60406000205460e01c166006811015612363578015612d555760018114612a2e57600214612d5057600390565b600290565b50600090565b90604051612d6881612545565b6101006002829480546001600160601b038116855261ffff8160601c16602086015260ff8160701c16604086015260ff8160781c16606086015260ff8160801c16612db281612359565b608086015265ffffffffffff90818160881c1660a087015260b81c1660c0850152600181015460e08501520154910152565b67ffffffffffffffff81116115685760051b6020019056fea2646970667358221220043b7c709dbf482e313781ff297f7e5aa7c738f584ac9010f10eb057d8dc5cdf64736f6c63430008140033",
  "linkReferences": {},
  "deployedLinkReferences": {}
}