{
  "_format": "hh-sol-artifact-1",
  "contractName": "ProgressiveEscrow",
  "sourceName": "src/ProgressiveEscrow.sol",
  "abi": [
    {
      "inputs": [
        {
          "internalType": "address",
          "name": "_agentRegistry",
          "type": "address"
        },
        {
          "internalType": "address",
          "name": "_alignmentNodeVerifier",
          "type": "address"
        }
      ],
      "stateMutability": "nonpayable",
      "type": "constructor"
    },
    {
      "inputs": [],
      "name": "AgentInactive",
      "type": "error"
    },
    {
      "inputs": [],
      "name": "AgentMissingSkill",
      "type": "error"
    },
    {
      "inputs": [],
      "name": "ArrayLengthMismatch",
      "type": "error"
    },
    {
      "inputs": [],
      "name": "InvalidMilestoneCount",
      "type": "error"
    },
    {
      "inputs": [],
      "name": "InvalidMilestoneIndex",
      "type": "error"
    },
    {
      "inputs": [],
      "name": "InvalidProposalIndex",
      "type": "error"
    },
    {
      "inputs": [],
      "name": "InvalidScore",
      "type": "error"
    },
    {
      "inputs": [],
      "name": "InvalidSignature",
      "type": "error"
    },
    {
      "inputs": [],
      "name": "JobNotCancellable",
      "type": "error"
    },
    {
      "inputs": [],
      "name": "JobNotInProgress",
      "type": "error"
    },
    {
      "inputs": [],
      "name": "JobNotOpen",
      "type": "error"
    },
    {
      "inputs": [],
      "name": "MaxRetriesReached",
      "type": "error"
    },
    {
      "inputs": [],
      "name": "MilestoneFinalized",
      "type": "error"
    },
    {
      "inputs": [],
      "name": "MilestonesAlreadyDefined",
      "type": "error"
    },
    {
      "inputs": [],
      "name": "NotAgentOwner",
      "type": "error"
    },
    {
      "inputs": [],
      "name": "NotAgentWallet",
      "type": "error"
    },
    {
      "inputs": [],
      "name": "NotClient",
      "type": "error"
    },
    {
      "inputs": [],
      "name": "PercentageNotZero",
      "type": "error"
    },
    {
      "inputs": [],
      "name": "PercentageSumInvalid",
      "type": "error"
    },
    {
      "inputs": [],
      "name": "ProposalAlreadyAccepted",
      "type": "error"
    },
    {
      "inputs": [],
      "name": "RefundFailed",
      "type": "error"
    },
    {
      "inputs": [],
      "name": "TransferFailed",
      "type": "error"
    },
    {
      "inputs": [],
      "name": "ValueMismatch",
      "type": "error"
    },
    {
      "inputs": [],
      "name": "ZeroAddress",
      "type": "error"
    },
    {
      "inputs": [],
      "name": "ZeroHash",
      "type": "error"
    },
    {
      "inputs": [],
      "name": "ZeroRate",
      "type": "error"
    },
    {
      "anonymous": false,
      "inputs": [
        {
          "indexed": true,
          "internalType": "uint256",
          "name": "jobId",
          "type": "uint256"
        },
        {
          "indexed": false,
          "internalType": "uint96",
          "name": "refundWei",
          "type": "uint96"
        }
      ],
      "name": "JobCancelled",
      "type": "event"
    },
    {
      "anonymous": false,
      "inputs": [
        {
          "indexed": true,
          "internalType": "uint256",
          "name": "jobId",
          "type": "uint256"
        },
        {
          "indexed": false,
          "internalType": "uint96",
          "name": "totalReleasedWei",
          "type": "uint96"
        }
      ],
      "name": "JobCompleted",
      "type": "event"
    },
    {
      "anonymous": false,
      "inputs": [
        {
          "indexed": true,
          "internalType": "uint256",
          "name": "jobId",
          "type": "uint256"
        },
        {
          "indexed": true,
          "internalType": "address",
          "name": "client",
          "type": "address"
        },
        {
          "indexed": false,
          "internalType": "bytes",
          "name": "params",
          "type": "bytes"
        }
      ],
      "name": "JobCreated",
      "type": "event"
    },
    {
      "anonymous": false,
      "inputs": [
        {
          "indexed": true,
          "internalType": "uint256",
          "name": "jobId",
          "type": "uint256"
        },
        {
          "indexed": true,
          "internalType": "address",
          "name": "agent",
          "type": "address"
        },
        {
          "indexed": false,
          "internalType": "uint96",
          "name": "amount",
          "type": "uint96"
        }
      ],
      "name": "JobFunded",
      "type": "event"
    },
    {
      "anonymous": false,
      "inputs": [
        {
          "indexed": true,
          "internalType": "uint256",
          "name": "jobId",
          "type": "uint256"
        },
        {
          "indexed": true,
          "internalType": "address",
          "name": "client",
          "type": "address"
        },
        {
          "indexed": false,
          "internalType": "bytes32",
          "name": "skillId",
          "type": "bytes32"
        },
        {
          "indexed": false,
          "internalType": "bytes32",
          "name": "jobDataHash",
          "type": "bytes32"
        }
      ],
      "name": "JobPosted",
      "type": "event"
    },
    {
      "anonymous": false,
      "inputs": [
        {
          "indexed": true,
          "internalType": "uint256",
          "name": "jobId",
          "type": "uint256"
        },
        {
          "indexed": false,
          "internalType": "bytes",
          "name": "evidence",
          "type": "bytes"
        }
      ],
      "name": "JobSubmitted",
      "type": "event"
    },
    {
      "anonymous": false,
      "inputs": [
        {
          "indexed": true,
          "internalType": "uint256",
          "name": "jobId",
          "type": "uint256"
        },
        {
          "indexed": false,
          "internalType": "bool",
          "name": "success",
          "type": "bool"
        },
        {
          "indexed": false,
          "internalType": "bytes",
          "name": "data",
          "type": "bytes"
        }
      ],
      "name": "JobTerminal",
      "type": "event"
    },
    {
      "anonymous": false,
      "inputs": [
        {
          "indexed": true,
          "internalType": "uint256",
          "name": "jobId",
          "type": "uint256"
        },
        {
          "indexed": true,
          "internalType": "uint8",
          "name": "milestoneIndex",
          "type": "uint8"
        },
        {
          "indexed": false,
          "internalType": "uint96",
          "name": "amountWei",
          "type": "uint96"
        },
        {
          "indexed": false,
          "internalType": "uint16",
          "name": "alignmentScore",
          "type": "uint16"
        }
      ],
      "name": "MilestoneApproved",
      "type": "event"
    },
    {
      "anonymous": false,
      "inputs": [
        {
          "indexed": true,
          "internalType": "uint256",
          "name": "jobId",
          "type": "uint256"
        },
        {
          "indexed": false,
          "internalType": "uint8",
          "name": "milestoneCount",
          "type": "uint8"
        }
      ],
      "name": "MilestoneDefined",
      "type": "event"
    },
    {
      "anonymous": false,
      "inputs": [
        {
          "indexed": true,
          "internalType": "uint256",
          "name": "jobId",
          "type": "uint256"
        },
        {
          "indexed": true,
          "internalType": "uint8",
          "name": "milestoneIndex",
          "type": "uint8"
        },
        {
          "indexed": false,
          "internalType": "uint96",
          "name": "refundWei",
          "type": "uint96"
        },
        {
          "indexed": false,
          "internalType": "uint16",
          "name": "alignmentScore",
          "type": "uint16"
        }
      ],
      "name": "MilestoneRejected",
      "type": "event"
    },
    {
      "anonymous": false,
      "inputs": [
        {
          "indexed": true,
          "internalType": "uint256",
          "name": "jobId",
          "type": "uint256"
        },
        {
          "indexed": true,
          "internalType": "uint8",
          "name": "milestoneIndex",
          "type": "uint8"
        },
        {
          "indexed": false,
          "internalType": "bytes32",
          "name": "outputHash",
          "type": "bytes32"
        },
        {
          "indexed": false,
          "internalType": "uint8",
          "name": "retryCount",
          "type": "uint8"
        }
      ],
      "name": "MilestoneSubmitted",
      "type": "event"
    },
    {
      "anonymous": false,
      "inputs": [
        {
          "indexed": true,
          "internalType": "uint256",
          "name": "jobId",
          "type": "uint256"
        },
        {
          "indexed": false,
          "internalType": "uint256",
          "name": "proposalIndex",
          "type": "uint256"
        },
        {
          "indexed": true,
          "internalType": "uint256",
          "name": "agentId",
          "type": "uint256"
        },
        {
          "indexed": false,
          "internalType": "uint96",
          "name": "budgetWei",
          "type": "uint96"
        }
      ],
      "name": "ProposalAccepted",
      "type": "event"
    },
    {
      "anonymous": false,
      "inputs": [
        {
          "indexed": true,
          "internalType": "uint256",
          "name": "jobId",
          "type": "uint256"
        },
        {
          "indexed": false,
          "internalType": "uint256",
          "name": "proposalIndex",
          "type": "uint256"
        },
        {
          "indexed": true,
          "internalType": "uint256",
          "name": "agentId",
          "type": "uint256"
        },
        {
          "indexed": false,
          "internalType": "uint96",
          "name": "proposedRateWei",
          "type": "uint96"
        }
      ],
      "name": "ProposalSubmitted",
      "type": "event"
    },
    {
      "inputs": [],
      "name": "APPROVAL_THRESHOLD",
      "outputs": [
        {
          "internalType": "uint256",
          "name": "",
          "type": "uint256"
        }
      ],
      "stateMutability": "view",
      "type": "function"
    },
    {
      "inputs": [],
      "name": "MAX_MILESTONES",
      "outputs": [
        {
          "internalType": "uint8",
          "name": "",
          "type": "uint8"
        }
      ],
      "stateMutability": "view",
      "type": "function"
    },
    {
      "inputs": [],
      "name": "MAX_RETRIES",
      "outputs": [
        {
          "internalType": "uint256",
          "name": "",
          "type": "uint256"
        }
      ],
      "stateMutability": "view",
      "type": "function"
    },
    {
      "inputs": [
        {
          "internalType": "uint256",
          "name": "jobId",
          "type": "uint256"
        },
        {
          "internalType": "uint256",
          "name": "proposalIndex",
          "type": "uint256"
        }
      ],
      "name": "acceptProposal",
      "outputs": [],
      "stateMutability": "payable",
      "type": "function"
    },
    {
      "inputs": [
        {
          "internalType": "address",
          "name": "",
          "type": "address"
        },
        {
          "internalType": "uint256",
          "name": "",
          "type": "uint256"
        }
      ],
      "name": "agentJobs",
      "outputs": [
        {
          "internalType": "uint256",
          "name": "",
          "type": "uint256"
        }
      ],
      "stateMutability": "view",
      "type": "function"
    },
    {
      "inputs": [],
      "name": "agentRegistry",
      "outputs": [
        {
          "internalType": "contract IAgentRegistry",
          "name": "",
          "type": "address"
        }
      ],
      "stateMutability": "view",
      "type": "function"
    },
    {
      "inputs": [],
      "name": "alignmentNodeVerifier",
      "outputs": [
        {
          "internalType": "address",
          "name": "",
          "type": "address"
        }
      ],
      "stateMutability": "view",
      "type": "function"
    },
    {
      "inputs": [
        {
          "internalType": "uint256",
          "name": "jobId",
          "type": "uint256"
        }
      ],
      "name": "cancelJob",
      "outputs": [],
      "stateMutability": "nonpayable",
      "type": "function"
    },
    {
      "inputs": [
        {
          "internalType": "address",
          "name": "",
          "type": "address"
        },
        {
          "internalType": "uint256",
          "name": "",
          "type": "uint256"
        }
      ],
      "name": "clientJobs",
      "outputs": [
        {
          "internalType": "uint256",
          "name": "",
          "type": "uint256"
        }
      ],
      "stateMutability": "view",
      "type": "function"
    },
    {
      "inputs": [
        {
          "internalType": "uint256",
          "name": "jobId",
          "type": "uint256"
        },
        {
          "internalType": "uint8[]",
          "name": "percentages",
          "type": "uint8[]"
        },
        {
          "internalType": "bytes32[]",
          "name": "criteriaHashes",
          "type": "bytes32[]"
        }
      ],
      "name": "defineMilestones",
      "outputs": [],
      "stateMutability": "nonpayable",
      "type": "function"
    },
    {
      "inputs": [],
      "name": "evaluator",
      "outputs": [
        {
          "internalType": "address",
          "name": "",
          "type": "address"
        }
      ],
      "stateMutability": "view",
      "type": "function"
    },
    {
      "inputs": [
        {
          "internalType": "address",
          "name": "agentWallet",
          "type": "address"
        }
      ],
      "name": "getAgentJobs",
      "outputs": [
        {
          "internalType": "uint256[]",
          "name": "",
          "type": "uint256[]"
        }
      ],
      "stateMutability": "view",
      "type": "function"
    },
    {
      "inputs": [
        {
          "internalType": "address",
          "name": "client",
          "type": "address"
        }
      ],
      "name": "getClientJobs",
      "outputs": [
        {
          "internalType": "uint256[]",
          "name": "",
          "type": "uint256[]"
        }
      ],
      "stateMutability": "view",
      "type": "function"
    },
    {
      "inputs": [
        {
          "internalType": "uint256",
          "name": "jobId",
          "type": "uint256"
        }
      ],
      "name": "getJob",
      "outputs": [
        {
          "components": [
            {
              "internalType": "address",
              "name": "client",
              "type": "address"
            },
            {
              "internalType": "uint64",
              "name": "agentId",
              "type": "uint64"
            },
            {
              "internalType": "enum ProgressiveEscrow.JobStatus",
              "name": "status",
              "type": "uint8"
            },
            {
              "internalType": "uint8",
              "name": "milestoneCount",
              "type": "uint8"
            },
            {
              "internalType": "address",
              "name": "agentWallet",
              "type": "address"
            },
            {
              "internalType": "uint96",
              "name": "totalBudgetWei",
              "type": "uint96"
            },
            {
              "internalType": "uint96",
              "name": "releasedWei",
              "type": "uint96"
            },
            {
              "internalType": "uint64",
              "name": "createdAt",
              "type": "uint64"
            },
            {
              "internalType": "bytes32",
              "name": "skillId",
              "type": "bytes32"
            },
            {
              "internalType": "bytes32",
              "name": "jobDataHash",
              "type": "bytes32"
            }
          ],
          "internalType": "struct ProgressiveEscrow.Job",
          "name": "",
          "type": "tuple"
        }
      ],
      "stateMutability": "view",
      "type": "function"
    },
    {
      "inputs": [
        {
          "internalType": "uint256",
          "name": "jobId",
          "type": "uint256"
        }
      ],
      "name": "getJobState",
      "outputs": [
        {
          "internalType": "enum ProgressiveEscrow.ERC8183State",
          "name": "",
          "type": "uint8"
        }
      ],
      "stateMutability": "view",
      "type": "function"
    },
    {
      "inputs": [
        {
          "internalType": "uint256",
          "name": "jobId",
          "type": "uint256"
        },
        {
          "internalType": "uint8",
          "name": "index",
          "type": "uint8"
        }
      ],
      "name": "getMilestone",
      "outputs": [
        {
          "components": [
            {
              "internalType": "uint96",
              "name": "amountWei",
              "type": "uint96"
            },
            {
              "internalType": "uint16",
              "name": "alignmentScore",
              "type": "uint16"
            },
            {
              "internalType": "uint8",
              "name": "percentage",
              "type": "uint8"
            },
            {
              "internalType": "uint8",
              "name": "retryCount",
              "type": "uint8"
            },
            {
              "internalType": "enum ProgressiveEscrow.MilestoneStatus",
              "name": "status",
              "type": "uint8"
            },
            {
              "internalType": "uint48",
              "name": "submittedAt",
              "type": "uint48"
            },
            {
              "internalType": "uint48",
              "name": "completedAt",
              "type": "uint48"
            },
            {
              "internalType": "bytes32",
              "name": "criteriaHash",
              "type": "bytes32"
            },
            {
              "internalType": "bytes32",
              "name": "outputHash",
              "type": "bytes32"
            }
          ],
          "internalType": "struct ProgressiveEscrow.Milestone",
          "name": "",
          "type": "tuple"
        }
      ],
      "stateMutability": "view",
      "type": "function"
    },
    {
      "inputs": [
        {
          "internalType": "uint256",
          "name": "jobId",
          "type": "uint256"
        }
      ],
      "name": "getMilestones",
      "outputs": [
        {
          "components": [
            {
              "internalType": "uint96",
              "name": "amountWei",
              "type": "uint96"
            },
            {
              "internalType": "uint16",
              "name": "alignmentScore",
              "type": "uint16"
            },
            {
              "internalType": "uint8",
              "name": "percentage",
              "type": "uint8"
            },
            {
              "internalType": "uint8",
              "name": "retryCount",
              "type": "uint8"
            },
            {
              "internalType": "enum ProgressiveEscrow.MilestoneStatus",
              "name": "status",
              "type": "uint8"
            },
            {
              "internalType": "uint48",
              "name": "submittedAt",
              "type": "uint48"
            },
            {
              "internalType": "uint48",
              "name": "completedAt",
              "type": "uint48"
            },
            {
              "internalType": "bytes32",
              "name": "criteriaHash",
              "type": "bytes32"
            },
            {
              "internalType": "bytes32",
              "name": "outputHash",
              "type": "bytes32"
            }
          ],
          "internalType": "struct ProgressiveEscrow.Milestone[]",
          "name": "",
          "type": "tuple[]"
        }
      ],
      "stateMutability": "view",
      "type": "function"
    },
    {
      "inputs": [],
      "name": "getOpenJobs",
      "outputs": [
        {
          "internalType": "uint256[]",
          "name": "",
          "type": "uint256[]"
        }
      ],
      "stateMutability": "view",
      "type": "function"
    },
    {
      "inputs": [
        {
          "internalType": "uint256",
          "name": "jobId",
          "type": "uint256"
        }
      ],
      "name": "getProposals",
      "outputs": [
        {
          "components": [
            {
              "internalType": "uint64",
              "name": "agentId",
              "type": "uint64"
            },
            {
              "internalType": "address",
              "name": "agentOwner",
              "type": "address"
            },
            {
              "internalType": "bool",
              "name": "accepted",
              "type": "bool"
            },
            {
              "internalType": "uint96",
              "name": "proposedRateWei",
              "type": "uint96"
            },
            {
              "internalType": "uint64",
              "name": "submittedAt",
              "type": "uint64"
            },
            {
              "internalType": "bytes32",
              "name": "descriptionHash",
              "type": "bytes32"
            }
          ],
          "internalType": "struct ProgressiveEscrow.Proposal[]",
          "name": "",
          "type": "tuple[]"
        }
      ],
      "stateMutability": "view",
      "type": "function"
    },
    {
      "inputs": [
        {
          "internalType": "uint256",
          "name": "",
          "type": "uint256"
        },
        {
          "internalType": "uint256",
          "name": "",
          "type": "uint256"
        }
      ],
      "name": "jobMilestones",
      "outputs": [
        {
          "internalType": "uint96",
          "name": "amountWei",
          "type": "uint96"
        },
        {
          "internalType": "uint16",
          "name": "alignmentScore",
          "type": "uint16"
        },
        {
          "internalType": "uint8",
          "name": "percentage",
          "type": "uint8"
        },
        {
          "internalType": "uint8",
          "name": "retryCount",
          "type": "uint8"
        },
        {
          "internalType": "enum ProgressiveEscrow.MilestoneStatus",
          "name": "status",
          "type": "uint8"
        },
        {
          "internalType": "uint48",
          "name": "submittedAt",
          "type": "uint48"
        },
        {
          "internalType": "uint48",
          "name": "completedAt",
          "type": "uint48"
        },
        {
          "internalType": "bytes32",
          "name": "criteriaHash",
          "type": "bytes32"
        },
        {
          "internalType": "bytes32",
          "name": "outputHash",
          "type": "bytes32"
        }
      ],
      "stateMutability": "view",
      "type": "function"
    },
    {
      "inputs": [
        {
          "internalType": "uint256",
          "name": "",
          "type": "uint256"
        },
        {
          "internalType": "uint256",
          "name": "",
          "type": "uint256"
        }
      ],
      "name": "jobProposals",
      "outputs": [
        {
          "internalType": "uint64",
          "name": "agentId",
          "type": "uint64"
        },
        {
          "internalType": "address",
          "name": "agentOwner",
          "type": "address"
        },
        {
          "internalType": "bool",
          "name": "accepted",
          "type": "bool"
        },
        {
          "internalType": "uint96",
          "name": "proposedRateWei",
          "type": "uint96"
        },
        {
          "internalType": "uint64",
          "name": "submittedAt",
          "type": "uint64"
        },
        {
          "internalType": "bytes32",
          "name": "descriptionHash",
          "type": "bytes32"
        }
      ],
      "stateMutability": "view",
      "type": "function"
    },
    {
      "inputs": [
        {
          "internalType": "uint256",
          "name": "",
          "type": "uint256"
        }
      ],
      "name": "jobs",
      "outputs": [
        {
          "internalType": "address",
          "name": "client",
          "type": "address"
        },
        {
          "internalType": "uint64",
          "name": "agentId",
          "type": "uint64"
        },
        {
          "internalType": "enum ProgressiveEscrow.JobStatus",
          "name": "status",
          "type": "uint8"
        },
        {
          "internalType": "uint8",
          "name": "milestoneCount",
          "type": "uint8"
        },
        {
          "internalType": "address",
          "name": "agentWallet",
          "type": "address"
        },
        {
          "internalType": "uint96",
          "name": "totalBudgetWei",
          "type": "uint96"
        },
        {
          "internalType": "uint96",
          "name": "releasedWei",
          "type": "uint96"
        },
        {
          "internalType": "uint64",
          "name": "createdAt",
          "type": "uint64"
        },
        {
          "internalType": "bytes32",
          "name": "skillId",
          "type": "bytes32"
        },
        {
          "internalType": "bytes32",
          "name": "jobDataHash",
          "type": "bytes32"
        }
      ],
      "stateMutability": "view",
      "type": "function"
    },
    {
      "inputs": [
        {
          "internalType": "bytes32",
          "name": "jobDataHash",
          "type": "bytes32"
        },
        {
          "internalType": "bytes32",
          "name": "skillId",
          "type": "bytes32"
        }
      ],
      "name": "postJob",
      "outputs": [
        {
          "internalType": "uint256",
          "name": "jobId",
          "type": "uint256"
        }
      ],
      "stateMutability": "nonpayable",
      "type": "function"
    },
    {
      "inputs": [
        {
          "internalType": "uint256",
          "name": "jobId",
          "type": "uint256"
        },
        {
          "internalType": "uint8",
          "name": "milestoneIndex",
          "type": "uint8"
        },
        {
          "internalType": "bytes32",
          "name": "outputHash",
          "type": "bytes32"
        },
        {
          "internalType": "uint16",
          "name": "alignmentScore",
          "type": "uint16"
        },
        {
          "internalType": "bytes",
          "name": "signature",
          "type": "bytes"
        }
      ],
      "name": "releaseMilestone",
      "outputs": [],
      "stateMutability": "nonpayable",
      "type": "function"
    },
    {
      "inputs": [
        {
          "internalType": "uint256",
          "name": "jobId",
          "type": "uint256"
        },
        {
          "internalType": "uint256",
          "name": "agentId",
          "type": "uint256"
        },
        {
          "internalType": "uint96",
          "name": "proposedRateWei",
          "type": "uint96"
        },
        {
          "internalType": "bytes32",
          "name": "descriptionHash",
          "type": "bytes32"
        }
      ],
      "name": "submitProposal",
      "outputs": [],
      "stateMutability": "nonpayable",
      "type": "function"
    },
    {
      "inputs": [],
      "name": "totalJobs",
      "outputs": [
        {
          "internalType": "uint256",
          "name": "",
          "type": "uint256"
        }
      ],
      "stateMutability": "view",
      "type": "function"
    }
  ],
  "bytecode": "0x60a034620000e357601f62002c6b38819003918201601f19168301916001600160401b03831184841017620000e8578084926040948552833981010312620000e3576200005a60206200005283620000fe565b9201620000fe565b6001600081905580556001600160a01b0391821680158015620000d8575b620000c6576080521660018060a01b03196009541617600955604051612b579081620001148239608051818181610205015281816108c40152818161180a015281816119960152611fbc0152f35b60405163d92e233d60e01b8152600490fd5b508282161562000078565b600080fd5b634e487b7160e01b600052604160045260246000fd5b51906001600160a01b0382168203620000e35756fe608080604052600436101561001357600080fd5b600090813560e01c908163056da8df14611fe0575080630d1cfcae14611f9c5780631321c95e14611f26578063180aedf314611e725780631ace87b314611e505780631dffa3dc14611cc85780632c72fdfc14611b665780632ebd7604146106ea5780633ab3429014611b495780633fb200c2146113cc57806342c549c01461130657806346ebbdb0146112ea5780634c05abeb146112ce57806353bc1c12146112885780635713f9ae146110b05780635b213d2214610c9157806373a2b57f14610bdc578063894b9ba71461085d5780638c079d65146107ea5780638cc14d05146107595780638facd859146107115780639cb93dd1146106ea578063bf22c45714610517578063cf2646c214610490578063d801fd2d146104375763e1e1d5ca1461013f57600080fd5b61014836612193565b906101516124d9565b8083526002602052604083208054906001600160a01b039182811633036104255760e01c60ff166006811015610411576103ff57828552600460205260408520548410156103ed5782855260046020526101ae84604087206121a9565b5093845460ff8160e01c166103db576001600160601b03958660018201541634036103c9578634116103c95760405163784c53d760e11b815267ffffffffffffffff838116600483015291906101a09081816024817f00000000000000000000000000000000000000000000000000000000000000008c165afa9182156103be578b92610391575b505060808101511561037f5760e00194868651161561036d578793600160e01b60ff60e01b1981921617808455825490898951169b34169b3460a01b73ffffffffffffffffffffffffffffffffffffffff191617600185015560a01b7bffffffffffffffff000000000000000000000000000000000000000016907fffffff000000000000000000ffffffffffffffffffffffffffffffffffffffff16171790556102e083612772565b85855116895260066020528260408a20906102fa91612240565b54604080519485526001600160601b03891660208601529116927ff239d6ac1d4c40d92711105f87885001340f830846d5db9f886f41cfd75b6c489190a351169160405190815260207fd2fdaeb95d3de90984cdc17eeeddb88dd5329cd8a09bdf4f617fee1dcaae037d91a36001815580f35b60405163d92e233d60e01b8152600490fd5b60405163ba32abe160e01b8152600490fd5b6103b09250803d106103b7575b6103a8818361230c565b8101906123c6565b3880610236565b503d61039e565b6040513d8d823e3d90fd5b60405163dd8e4af760e01b8152600490fd5b60405163a5e98d0760e01b8152600490fd5b604051632a289da360e01b8152600490fd5b60405163d76ebd0f60e01b8152600490fd5b634e487b7160e01b86526021600452602486fd5b604051630836f21d60e21b8152600490fd5b503461048d57604036600319011261048d576104516121db565b6001600160a01b031681526006602052604081208054602435929083101561048d57602061047f8484612228565b90546040519160031b1c8152f35b80fd5b503461048d57602080600319360112610513576001600160a01b036104b36121db565b1682526005815260408220916040518092808554928381520194835280832092905b8282106104fc576104f8856104ec8189038261230c565b6040519182918261211a565b0390f35b8354865294850194600193840193909101906104d5565b5080fd5b503461048d57602036600319011261048d5780610120604051610539816122b7565b8281528260208201528260408201528260608201528260808201528260a08201528260c08201528260e08201528261010082015201526004358152600260205260408120906040519061058b826122b7565b8254906001600160a01b038216835267ffffffffffffffff8260a01c16602084015260ff8260e01c169060068210156106d657509260ff60049261014095604086015260e81c16606084015260018101546001600160a01b038116608085015260a01c60a084015267ffffffffffffffff60028201546001600160601b03811660c086015260601c1660e084015260038101546101008401520154610120820152610120604051916001600160a01b03815116835267ffffffffffffffff602082015116602084015261066660408201516040850190612155565b60ff60608201511660608401526001600160a01b0360808201511660808401526001600160601b0360a08201511660a08401526001600160601b0360c08201511660c084015267ffffffffffffffff60e08201511660e08401526101008101516101008401520151610120820152f35b634e487b7160e01b81526021600452602490fd5b503461048d578060031936011261048d5760206001600160a01b0360095416604051908152f35b503461048d57604036600319011261048d5761072b6121db565b6001600160a01b031681526005602052604081208054602435929083101561048d57602061047f8484612228565b503461048d5761076836612193565b9190815260046020526040812090815483101561048d5760c061078b84846121a9565b50805460026001830154920154906040519260ff67ffffffffffffffff9283811686526001600160a01b038160401c16602087015260e01c16151560408501526001600160601b038116606085015260601c16608083015260a0820152f35b503461048d57602080600319360112610513576001600160a01b0361080d6121db565b1682526006815260408220916040518092808554928381520194835280832092905b828210610846576104f8856104ec8189038261230c565b83548652948501946001938401939091019061082f565b503461048d57608036600319011261048d57600435906024918235906044356001600160601b0380821695868303610bd857838652602096600288526040872060ff815460e01c166006811015610bc5576103ff578115610bb3576001600160a01b0390817f000000000000000000000000000000000000000000000000000000000000000016916040519063784c53d760e11b82528960048301526101a09182818881885afa928315610ba8578c93610b89575b50508151163303610b7757608001511561037f5760038a91015480610ae6575b5050508487526004885260408720978854936040519061095182612287565b67ffffffffffffffff92838a1683528201338152604083018b8152606084019586526080840193854216855260a081019d8e6064359052680100000000000000008a1015610ad357896109a9916001820181556121a9565b989098610ac157505187549251915160ff60e01b90151560e01b167bffffffffffffffffffffffffffffffffffffffff0000000000000000604093841b169187167fffffff000000000000000000000000000000000000000000000000000000000090941693909317179190911786559351600186018054935173ffffffffffffffff000000000000000000000000951660601b9490941673ffffffffffffffffffffffffffffffffffffffff19909316911673ffffffffffffffff000000000000000000000000191617179055965160029091015585519081526001600160601b039190911660208201529293919290917fa3dec8184e1ae0987ab8da0efc7c4cfb2e32d68030f25c4cac7ce65a5530219691a380f35b634e487b7160e01b8e5260048e90528dfd5b634e487b7160e01b8e526041600452888efd5b60446040518094819363039e78fd60e11b83528c6004840152888301525afa908115610b6c578891610b33575b5015610b2157388881610932565b604051630bfec77160e41b8152600490fd5b90508881813d8311610b65575b610b4a818361230c565b81010312610b6157610b5b906123a4565b38610b13565b8780fd5b503d610b40565b6040513d8a823e3d90fd5b604051630e41dcbf60e21b8152600490fd5b610ba0929350803d106103b7576103a8818361230c565b903880610912565b6040513d8e823e3d90fd5b6040516314cee7cd60e11b8152600490fd5b634e487b7160e01b895260216004528389fd5b8580fd5b503461048d57610beb36612193565b9190815260036020526040812090815483101561048d57610120610c0f84846121a9565b50805460ff8160801c16916002600182015491015491604051936001600160601b038216855261ffff8260601c16602086015260ff8260701c16604086015260ff8260781c166060860152610c638161207e565b608085015265ffffffffffff90818160881c1660a086015260b81c1660c084015260e0830152610100820152f35b503461048d57606036600319011261048d5767ffffffffffffffff6024358181116110ac57610cc4903690600401612162565b916044359081116110a857610cdd903690600401612162565b60043585526002602052604085209283546001600160a01b03811633036104255760e01c60ff166006811015611094576001036110825784158015611078575b611066578185036110545760043586526003602052604086206001850154928794885b888110610dd45789898960648a03610dc25780547fffff0000ffffffffffffffffffffffffffffffffffffffffffffffffffffffff1660e883901b60ff60e81b1617600160e11b17905560405160ff919091168152600435907f27239def8da3acb1dad88fd6e345a7fc2fe2227f5c8319c43c506f2df8581ce590602090a280f35b60405163a3ab388760e01b8152600490fd5b610ddf818a8761252f565b359660ff881688036110505760ff88161561103e5760ff881601968660a01c60ff82168860a01c020460ff8216148760a01c15171561102a57610e2382858561252f565b3560ff60405192610e338461226a565b6001600160601b0360648383168c60a01c02041684528d60208501521660408301528b60608301528b60808301528b60a08301528b60c083015260e08201528a61010082015284546801000000000000000081101561101657806001610e9c92018755866121a9565b9190916110025780518254602083015160408401516060808601516fff00000000000000000000000000000060789190911b166eff000000000000000000000000000060709390931b929092166fffffffffffffffffffffffffffffffff199094166001600160601b03909516949094179190931b6dffff000000000000000000000000161717178255608081015160019392916002916101009190610f418161207e565b610f4a8161207e565b845460a08301517fffffffffffffffffff00000000000000ffffffffffffffffffffffffffffffff90911660809290921b70ff00000000000000000000000000000000169190911760889190911b65ffffffffffff60881b16178455610fee65ffffffffffff60c083015186547fffffff000000000000ffffffffffffffffffffffffffffffffffffffffffffff16911660b81b65ffffffffffff60b81b16178555565b60e081015186850155015191015501610d40565b634e487b7160e01b8c5260048c905260248cfd5b634e487b7160e01b8c52604160045260248cfd5b634e487b7160e01b8b52601160045260248bfd5b6040516334317a2960e01b8152600490fd5b8a80fd5b60405163512509d360e11b8152600490fd5b604051633e4932f960e21b8152600490fd5b50600a8511610d1d565b60405163b87f3be160e01b8152600490fd5b634e487b7160e01b87526021600452602487fd5b8380fd5b8280fd5b503461048d57604036600319011261048d576004356024358115611276576001549160018301600155828452602093600285528160046040832080547fffffff00ffffffffffffffff000000000000000000000000000000000000000060ff60e01b193316911617815561116667ffffffffffffffff4216600283019073ffffffffffffffff0000000000000000000000001973ffffffffffffffff00000000000000000000000083549260601b169116179055565b8560038201550155338152600585526111828460408320612240565b6007546801000000000000000081101561126057846111aa8260016111c394016007556121f1565b90919082549060031b91821b91600019901b1916179055565b6040600754918581526008875220556040518281528185820152837f2520217d1d08489bb89d6393e8f4e5b02287bb779ac973fc380694b1ae625f4560403393a3604051918483015260408201526040815261121e816122f0565b817ff2a56eb4fa7e77d296b016a96d54a5ce8d148c0dd1901c05a1fee63a6b7206a36040518581528061125533958883019061232e565b0390a3604051908152f35b634e487b7160e01b600052604160045260246000fd5b60405163f1ae58d560e01b8152600490fd5b503461048d57602036600319011261048d576112a5600435612a3e565b6040519060048110156112ba57602092508152f35b634e487b7160e01b83526021600452602483fd5b503461048d578060031936011261048d576020604051600a8152f35b503461048d578060031936011261048d57602060405160058152f35b503461048d576020908160031936011261048d5790600435825260038082526040832090815461133581612b09565b91611343604051938461230c565b8183528483018094875285872087915b8483106113a65750505050506040519280840191818552518092526040840192945b8281106113825784840385f35b90919282610120826113976001948a5161209e565b01960191019492919094611375565b83886001926113b9859c9b999a9c612a80565b8152019201920191909795949697611353565b503461048d5760a036600319011261048d576113e6612069565b61ffff60643516606435036105135767ffffffffffffffff60843511610513573660236084350112156105135767ffffffffffffffff60843560040135116105135736602460843560040135608435010111610513576114446124d9565b600435825260026020526040822060018101906001600160a01b038254163303611b3857805460ff8160e01c16600681101561041157600203611b265760ff9060e81c1660ff84161015611b145761271061ffff6064351611611b0257600435845260036020526114b883604086206121a9565b50805460ff8160801c166114cb8161207e565b8015159081611aed575b50611adb5760ff60059160781c161015611ac957604051600435602082015260ff8516604082015261ffff6064351660608201526044356080820152608081528060a081011067ffffffffffffffff60a083011117611ab5576115cc8160a06115d4930160405260a0815160208301209160c08101927f19457468657265756d205369676e6564204d6573736167653a0a333200000000845260dc820152603c828201526115848282016122f0565b015190206115976084356004013561253f565b906115a5604051928361230c565b608435600481013580845290602401602084013788602060843560040135840101526126ab565b91909161258b565b6001600160a01b038060095416911603611aa357604435600282015580546dffff000000000000000000000000191660643560601b6dffff0000000000000000000000001617815580547fffffffffffffffffff000000000000ffffffffffffffffffffffffffffffffff164260881b65ffffffffffff60881b1617815580546fff000000000000000000000000000000198116607891821c60ff1660010190911b6fff000000000000000000000000000000161781558054604051604435815260ff8260781c16602082015260ff8616907fc71c29f6ee5314dd16fcc4e6ecfd8ff20362a70b1c2a0d98b30fa80260950f3a604060043592a360405160ff86166020820152604435604082015261ffff6064351660608201526060815280608081011067ffffffffffffffff608083011117611a8f579081608088949301604052602060808201527f1062d5b8f3220844357466174ea36c56bce23a7c7f01c3736b0018831627b758600435916080607f198261175560a082018261232e565b03019101a2611f4060643561ffff1610611913575080547fffffff000000000000ffffffffffff00ffffffffffffffffffffffffffffffff164260b81b65ffffffffffff60b81b16177002000000000000000000000000000000001781558190819081906001600160a01b036001600160601b03809254169788926002890190815490858183160116906001600160601b03191617905554165af16117f861255b565b50156119015783906001600160a01b037f00000000000000000000000000000000000000000000000000000000000000001690600367ffffffffffffffff825460a01c16910154823b156110a85760848492836040519586948593632f4735f360e01b855260048501528960248501526001604485015260648401525af180156118f6576118e2575b5050604080516001600160601b0392909216825260643561ffff16602083015260ff9290921691600435917f4b2194134ee31a9e63781c573aff9bbc1e8bcaa0a4c64cc1456ae354743207e99190a36118db600435612837565b6001815580f35b6118eb906122a3565b6110ac578238611881565b6040513d84823e3d90fd5b6040516312171d8360e31b8152600490fd5b7fffffff000000000000ffffffffffff00ffffffffffffffffffffffffffffffff164260b81b65ffffffffffff60b81b16177003000000000000000000000000000000001781559192506001600160601b0391905054169083808080856001600160a01b038654165af161198561255b565b5015611a7d57836001600160a01b037f00000000000000000000000000000000000000000000000000000000000000001691600367ffffffffffffffff825460a01c1691015490833b156110ac57608490836040519586948593632f4735f360e01b8552600485015282602485015282604485015260648401525af18015611a7257611a5f575b50604080516001600160601b0392909216825260643561ffff16602083015260ff9290921691600435917f27446bb81b2fdb979297d26a54c5b35bbb0ccc5e5efda1dadb8ba88c5329d9949190a36118db565b611a6b909391936122a3565b9138611a0c565b6040513d86823e3d90fd5b604051633c31275160e21b8152600490fd5b634e487b7160e01b87526041600452602487fd5b604051638baa579f60e01b8152600490fd5b634e487b7160e01b86526041600452602486fd5b604051632e2d137760e11b8152600490fd5b60405163452ca09960e01b8152600490fd5b60049150611afa8161207e565b1415386114d5565b604051631556136560e01b8152600490fd5b60405163fdf4d87360e01b8152600490fd5b60405163345d337f60e11b8152600490fd5b6040516249a9c760e91b8152600490fd5b503461048d578060031936011261048d576020604051611f408152f35b503461048d576020908160031936011261048d5790600435825260048152604082208054611b9381612b09565b90611ba1604051928361230c565b8082528382018093865284862086915b838310611c4a57505050506040519280840191818552518092526040840192945b828110611bdf5784840385f35b8551805167ffffffffffffffff9081168652818401516001600160a01b0316868501526040808301511515908701526060808301516001600160601b0316908701526080808301519091169086015260a090810151908501529481019460c090930192600101611bd2565b60038760019260409a9997989a51611c6181612287565b855460ff67ffffffffffffffff9182811684526001600160a01b038160401c168685015260e01c16151560408301528587015460606001600160601b038216818501521c166080820152600286015460a08201528152019201920191909694939596611bb1565b503461048d576020806003193601126105135760043590611ce76124d9565b81835260028152604083208054906001600160a01b039081831633036104255760ff8360e01c16600681101580611e3c5781159182159081611e2d575b50611e1c57600183015460a01c6001600160601b0390816002860154169003169460ff60e01b19600160e21b91161783556110945790869291611e0e575b83611dee575b50505081611de4604092857f05a641aba4eb0a0803ac3fdc674ba47b4a45b87b4365bb89ca265b5cec8c43407fbaa97f85d711e94a84b6271d822fbbb222bd432baa1810752d91cf694d8de6ff968651848152a283519083820152828152611dcf816122d4565b8351938493888552840152604083019061232e565b0390a26001815580f35b82848193829354165af1611e0061255b565b5015611a7d57833880611d68565b611e1786612772565b611d62565b60405162cce94160e51b8152600490fd5b91505060018891141538611d24565b634e487b7160e01b88526021600452602488fd5b503461048d578060031936011261048d57602060001960015401604051908152f35b503461048d57602036600319011261048d57604061014091600435815260026020522080546001820154916002810154916004600383015492015492604051946001600160a01b03808416875260ff67ffffffffffffffff94858160a01c1660208a0152611ee860408a01838360e01c16612155565b60e81c1660608801528116608087015260a01c60a08601526001600160601b03811660c086015260601c1660e0840152610100830152610120820152f35b503461048d578060031936011261048d57604051600780548083529083526020808301937fa66cc928b5edb82af9bd49922954155ab7b0942694bea4ce44661d9a8736c68892915b828210611f85576104f8856104ec8189038261230c565b835486529485019460019384019390910190611f6e565b503461048d578060031936011261048d5760206040516001600160a01b037f0000000000000000000000000000000000000000000000000000000000000000168152f35b9050346105135760403660031901126105135761205461205a916040846101209561010061200c612069565b946120168161226a565b82815282602082015282858201528260608201528260808201528260a08201528260c08201528260e0820152015260043581526003602052206121a9565b50612a80565b612067604051809261209e565bf35b6024359060ff8216820361207957565b600080fd5b6005111561208857565b634e487b7160e01b600052602160045260246000fd5b6001600160601b03815116825261ffff602082015116602083015260ff604082015116604083015260ff606082015116606083015260808101516120e18161207e565b608083015265ffffffffffff8060a08301511660a084015260c08201511660c083015260e081015160e083015261010080910151910152565b6020908160408183019282815285518094520193019160005b828110612141575050505090565b835185529381019392810192600101612133565b9060068210156120885752565b9181601f840112156120795782359167ffffffffffffffff8311612079576020808501948460051b01011161207957565b6040906003190112612079576004359060243590565b80548210156121c5576000526003602060002091020190600090565b634e487b7160e01b600052603260045260246000fd5b600435906001600160a01b038216820361207957565b6007548110156121c55760076000527fa66cc928b5edb82af9bd49922954155ab7b0942694bea4ce44661d9a8736c6880190600090565b80548210156121c55760005260206000200190600090565b908154916801000000000000000083101561126057826111aa91600161226895018155612228565b565b610120810190811067ffffffffffffffff82111761126057604052565b60c0810190811067ffffffffffffffff82111761126057604052565b67ffffffffffffffff811161126057604052565b610140810190811067ffffffffffffffff82111761126057604052565b6040810190811067ffffffffffffffff82111761126057604052565b6060810190811067ffffffffffffffff82111761126057604052565b90601f8019910116810190811067ffffffffffffffff82111761126057604052565b919082519283825260005b84811061235a575050826000602080949584010152601f8019910116010190565b602081830181015184830182015201612339565b51906001600160a01b038216820361207957565b519065ffffffffffff8216820361207957565b519061ffff8216820361207957565b5190811515820361207957565b519067ffffffffffffffff8216820361207957565b80916101a092839103126120795760405191820182811067ffffffffffffffff821117611260576040526123f98161236e565b825261240760208201612382565b602083015261241860408201612395565b604083015261242960608201612395565b606083015261243a608082016123a4565b608083015260a081015160a083015260c081015160c083015261245f60e0820161236e565b60e08301526101006124728183016123b1565b90830152610120808201519063ffffffff821682036120795783015261014061249c8183016123b1565b9083015261016080820151906fffffffffffffffffffffffffffffffff82168203612079578301526124d2610180809201612382565b9082015290565b6002600054146124ea576002600055565b60405162461bcd60e51b815260206004820152601f60248201527f5265656e7472616e637947756172643a207265656e7472616e742063616c6c006044820152606490fd5b91908110156121c55760051b0190565b67ffffffffffffffff811161126057601f01601f191660200190565b3d15612586573d9061256c8261253f565b9161257a604051938461230c565b82523d6000602084013e565b606090565b6125948161207e565b8061259c5750565b6125a58161207e565b600181036125f25760405162461bcd60e51b815260206004820152601860248201527f45434453413a20696e76616c6964207369676e617475726500000000000000006044820152606490fd5b6125fb8161207e565b600281036126485760405162461bcd60e51b815260206004820152601f60248201527f45434453413a20696e76616c6964207369676e6174757265206c656e677468006044820152606490fd5b8061265460039261207e565b1461265b57565b60405162461bcd60e51b815260206004820152602260248201527f45434453413a20696e76616c6964207369676e6174757265202773272076616c604482015261756560f01b6064820152608490fd5b9060418151146000146126d9576126d5916020820151906060604084015193015160001a906126e3565b9091565b5050600090600290565b9291907f7fffffffffffffffffffffffffffffff5d576e7357a4501ddfe92f46681b20a083116127665791608094939160ff602094604051948552168484015260408301526060820152600093849182805260015afa156127595781516001600160a01b03811615612753579190565b50600190565b50604051903d90823e3d90fd5b50505050600090600390565b600090808252600860205260408220548015612832576000199081810182600754018082036127e6575b50505060075480156127d2578101906127b4826121f1565b909182549160031b1b19169055600755815260086020526040812055565b634e487b7160e01b84526031600452602484fd5b6127f083916121f1565b90549060031b1c91612805836111aa836121f1565b1161281e5784526008602052604084205538808061279c565b634e487b7160e01b85526011600452602485fd5b505050565b6000818152600260208181526040918284209360038084528482206001908392815491855b8381106129b957505050506000146129085750506001600160601b03612903917fbaa97f85d711e94a84b6271d822fbbb222bd432baa1810752d91cf694d8de6ff95600360e01b60ff60e01b19825416178155015416857fc148f492ad56a336ed32ded45465fde341420c21038d99884184b127b38262eb848651848152a2835190838201528281526128ee816122d4565b8380519485946001865285015283019061232e565b0390a2565b93909293612919575b505050505050565b6001600160601b036129ab927fbaa97f85d711e94a84b6271d822fbbb222bd432baa1810752d91cf694d8de6ff96600560e01b60ff60e01b1982541617815501541690867fc148f492ad56a336ed32ded45465fde341420c21038d99884184b127b38262eb868351858152a280519185830152848252612998826122d4565b808051958695865285015283019061232e565b0390a2388080808080612911565b60ff6129c582846121a9565b505460801c166129d48161207e565b80158015612a2b575b612a1c576129ea8161207e565b888103612a14575b806129fd859261207e565b14612a0b575b60010161285c565b60019550612a03565b8795506129f2565b50505050505050505050505050565b50612a358161207e565b600481146129dd565b600052600260205260ff60406000205460e01c166006811015612088578015612a7a576001811461275357600214612a7557600390565b600290565b50600090565b90604051612a8d8161226a565b6101006002829480546001600160601b038116855261ffff8160601c16602086015260ff8160701c16604086015260ff8160781c16606086015260ff8160801c16612ad78161207e565b608086015265ffffffffffff90818160881c1660a087015260b81c1660c0850152600181015460e08501520154910152565b67ffffffffffffffff81116112605760051b6020019056fea264697066735822122073a90c615263c920080d1efa838c4e3bc92f6154b937fdc96681c2202e56e58564736f6c63430008140033",
  "linkReferences": {},
  "deployedLinkReferences": {}
}