{
  "_format": "hh-sol-artifact-1",
  "contractName": "SubscriptionEscrow",
  "sourceName": "src/SubscriptionEscrow.sol",
  "abi": [
    {
      "inputs": [
        {
          "internalType": "address",
          "name": "_agentRegistry",
          "type": "address"
        }
      ],
      "stateMutability": "nonpayable",
      "type": "constructor"
    },
    {
      "inputs": [],
      "name": "AgentInactive",
      "type": "error"
    },
    {
      "inputs": [],
      "name": "AlertsDisabled",
      "type": "error"
    },
    {
      "inputs": [],
      "name": "AlreadyCancelled",
      "type": "error"
    },
    {
      "inputs": [],
      "name": "CheckInDisabled",
      "type": "error"
    },
    {
      "inputs": [],
      "name": "EmptyDescription",
      "type": "error"
    },
    {
      "inputs": [],
      "name": "GraceNotExpired",
      "type": "error"
    },
    {
      "inputs": [],
      "name": "InsufficientBalance",
      "type": "error"
    },
    {
      "inputs": [],
      "name": "InvalidInterval",
      "type": "error"
    },
    {
      "inputs": [],
      "name": "InvalidStatus",
      "type": "error"
    },
    {
      "inputs": [],
      "name": "NoProposal",
      "type": "error"
    },
    {
      "inputs": [],
      "name": "NotActive",
      "type": "error"
    },
    {
      "inputs": [],
      "name": "NotAgent",
      "type": "error"
    },
    {
      "inputs": [],
      "name": "NotAuthorized",
      "type": "error"
    },
    {
      "inputs": [],
      "name": "NotClient",
      "type": "error"
    },
    {
      "inputs": [],
      "name": "NotModeB",
      "type": "error"
    },
    {
      "inputs": [],
      "name": "NotModeC",
      "type": "error"
    },
    {
      "inputs": [],
      "name": "NotPaused",
      "type": "error"
    },
    {
      "inputs": [],
      "name": "NotPending",
      "type": "error"
    },
    {
      "inputs": [],
      "name": "RefundFailed",
      "type": "error"
    },
    {
      "inputs": [],
      "name": "TooEarly",
      "type": "error"
    },
    {
      "inputs": [],
      "name": "TransferFailed",
      "type": "error"
    },
    {
      "inputs": [],
      "name": "ValueTooLarge",
      "type": "error"
    },
    {
      "inputs": [],
      "name": "ZeroAddress",
      "type": "error"
    },
    {
      "inputs": [],
      "name": "ZeroBudget",
      "type": "error"
    },
    {
      "inputs": [],
      "name": "ZeroRates",
      "type": "error"
    },
    {
      "inputs": [],
      "name": "ZeroValue",
      "type": "error"
    },
    {
      "anonymous": false,
      "inputs": [
        {
          "indexed": true,
          "internalType": "uint256",
          "name": "subscriptionId",
          "type": "uint256"
        },
        {
          "indexed": true,
          "internalType": "uint256",
          "name": "agentId",
          "type": "uint256"
        },
        {
          "indexed": false,
          "internalType": "uint64",
          "name": "timestamp",
          "type": "uint64"
        },
        {
          "indexed": false,
          "internalType": "bytes",
          "name": "alertData",
          "type": "bytes"
        },
        {
          "indexed": false,
          "internalType": "uint96",
          "name": "amountDrained",
          "type": "uint96"
        }
      ],
      "name": "AlertFired",
      "type": "event"
    },
    {
      "anonymous": false,
      "inputs": [
        {
          "indexed": true,
          "internalType": "uint256",
          "name": "subscriptionId",
          "type": "uint256"
        },
        {
          "indexed": true,
          "internalType": "uint256",
          "name": "agentId",
          "type": "uint256"
        },
        {
          "indexed": false,
          "internalType": "uint96",
          "name": "amount",
          "type": "uint96"
        },
        {
          "indexed": false,
          "internalType": "uint64",
          "name": "timestamp",
          "type": "uint64"
        }
      ],
      "name": "CheckInDrained",
      "type": "event"
    },
    {
      "anonymous": false,
      "inputs": [
        {
          "indexed": true,
          "internalType": "uint256",
          "name": "subscriptionId",
          "type": "uint256"
        },
        {
          "indexed": false,
          "internalType": "uint32",
          "name": "interval",
          "type": "uint32"
        }
      ],
      "name": "IntervalApproved",
      "type": "event"
    },
    {
      "anonymous": false,
      "inputs": [
        {
          "indexed": true,
          "internalType": "uint256",
          "name": "subscriptionId",
          "type": "uint256"
        },
        {
          "indexed": false,
          "internalType": "uint32",
          "name": "suggestedInterval",
          "type": "uint32"
        }
      ],
      "name": "IntervalProposed",
      "type": "event"
    },
    {
      "anonymous": false,
      "inputs": [
        {
          "indexed": true,
          "internalType": "uint256",
          "name": "subscriptionId",
          "type": "uint256"
        },
        {
          "indexed": false,
          "internalType": "uint32",
          "name": "newInterval",
          "type": "uint32"
        }
      ],
      "name": "IntervalUpdated",
      "type": "event"
    },
    {
      "anonymous": false,
      "inputs": [
        {
          "indexed": true,
          "internalType": "uint256",
          "name": "subscriptionId",
          "type": "uint256"
        },
        {
          "indexed": false,
          "internalType": "bytes32",
          "name": "reason",
          "type": "bytes32"
        },
        {
          "indexed": false,
          "internalType": "uint128",
          "name": "refund",
          "type": "uint128"
        }
      ],
      "name": "SubscriptionCancelled",
      "type": "event"
    },
    {
      "anonymous": false,
      "inputs": [
        {
          "indexed": true,
          "internalType": "uint256",
          "name": "subscriptionId",
          "type": "uint256"
        },
        {
          "indexed": true,
          "internalType": "uint256",
          "name": "agentId",
          "type": "uint256"
        },
        {
          "indexed": true,
          "internalType": "address",
          "name": "client",
          "type": "address"
        },
        {
          "indexed": false,
          "internalType": "uint128",
          "name": "budget",
          "type": "uint128"
        },
        {
          "indexed": false,
          "internalType": "bytes32",
          "name": "taskHash",
          "type": "bytes32"
        }
      ],
      "name": "SubscriptionCreated",
      "type": "event"
    },
    {
      "anonymous": false,
      "inputs": [
        {
          "indexed": true,
          "internalType": "uint256",
          "name": "subscriptionId",
          "type": "uint256"
        },
        {
          "indexed": false,
          "internalType": "bytes32",
          "name": "reason",
          "type": "bytes32"
        }
      ],
      "name": "SubscriptionPaused",
      "type": "event"
    },
    {
      "anonymous": false,
      "inputs": [
        {
          "indexed": true,
          "internalType": "uint256",
          "name": "subscriptionId",
          "type": "uint256"
        },
        {
          "indexed": false,
          "internalType": "uint128",
          "name": "newBalance",
          "type": "uint128"
        }
      ],
      "name": "SubscriptionResumed",
      "type": "event"
    },
    {
      "anonymous": false,
      "inputs": [
        {
          "indexed": true,
          "internalType": "uint256",
          "name": "subscriptionId",
          "type": "uint256"
        },
        {
          "indexed": false,
          "internalType": "bytes32",
          "name": "webhookHash",
          "type": "bytes32"
        }
      ],
      "name": "WebhookSet",
      "type": "event"
    },
    {
      "inputs": [],
      "name": "AUTO_INTERVAL",
      "outputs": [
        {
          "internalType": "uint32",
          "name": "",
          "type": "uint32"
        }
      ],
      "stateMutability": "view",
      "type": "function"
    },
    {
      "inputs": [],
      "name": "DEFAULT_GRACE_PERIOD",
      "outputs": [
        {
          "internalType": "uint32",
          "name": "",
          "type": "uint32"
        }
      ],
      "stateMutability": "view",
      "type": "function"
    },
    {
      "inputs": [],
      "name": "MAX_GRACE_PERIOD",
      "outputs": [
        {
          "internalType": "uint32",
          "name": "",
          "type": "uint32"
        }
      ],
      "stateMutability": "view",
      "type": "function"
    },
    {
      "inputs": [],
      "name": "MIN_GRACE_PERIOD",
      "outputs": [
        {
          "internalType": "uint32",
          "name": "",
          "type": "uint32"
        }
      ],
      "stateMutability": "view",
      "type": "function"
    },
    {
      "inputs": [],
      "name": "agentRegistry",
      "outputs": [
        {
          "internalType": "contract IAgentRegistry",
          "name": "",
          "type": "address"
        }
      ],
      "stateMutability": "view",
      "type": "function"
    },
    {
      "inputs": [
        {
          "internalType": "address",
          "name": "",
          "type": "address"
        },
        {
          "internalType": "uint256",
          "name": "",
          "type": "uint256"
        }
      ],
      "name": "agentSubscriptions",
      "outputs": [
        {
          "internalType": "uint256",
          "name": "",
          "type": "uint256"
        }
      ],
      "stateMutability": "view",
      "type": "function"
    },
    {
      "inputs": [
        {
          "internalType": "uint256",
          "name": "subId",
          "type": "uint256"
        }
      ],
      "name": "approveInterval",
      "outputs": [],
      "stateMutability": "nonpayable",
      "type": "function"
    },
    {
      "inputs": [
        {
          "internalType": "uint256",
          "name": "subId",
          "type": "uint256"
        }
      ],
      "name": "cancelSubscription",
      "outputs": [],
      "stateMutability": "nonpayable",
      "type": "function"
    },
    {
      "inputs": [
        {
          "internalType": "address",
          "name": "",
          "type": "address"
        },
        {
          "internalType": "uint256",
          "name": "",
          "type": "uint256"
        }
      ],
      "name": "clientSubscriptions",
      "outputs": [
        {
          "internalType": "uint256",
          "name": "",
          "type": "uint256"
        }
      ],
      "stateMutability": "view",
      "type": "function"
    },
    {
      "inputs": [
        {
          "internalType": "uint256",
          "name": "agentId",
          "type": "uint256"
        },
        {
          "internalType": "bytes32",
          "name": "taskHash",
          "type": "bytes32"
        },
        {
          "internalType": "uint32",
          "name": "intervalSeconds",
          "type": "uint32"
        },
        {
          "internalType": "uint96",
          "name": "checkInRate",
          "type": "uint96"
        },
        {
          "internalType": "uint96",
          "name": "alertRate",
          "type": "uint96"
        },
        {
          "internalType": "uint32",
          "name": "gracePeriodSeconds",
          "type": "uint32"
        },
        {
          "internalType": "bool",
          "name": "x402Enabled",
          "type": "bool"
        },
        {
          "internalType": "enum SubscriptionEscrow.X402VerificationMode",
          "name": "x402VerificationMode",
          "type": "uint8"
        },
        {
          "internalType": "bytes",
          "name": "clientX402Sig",
          "type": "bytes"
        },
        {
          "internalType": "bytes32",
          "name": "webhookHash",
          "type": "bytes32"
        }
      ],
      "name": "createSubscription",
      "outputs": [
        {
          "internalType": "uint256",
          "name": "subId",
          "type": "uint256"
        }
      ],
      "stateMutability": "payable",
      "type": "function"
    },
    {
      "inputs": [
        {
          "internalType": "uint256",
          "name": "subId",
          "type": "uint256"
        },
        {
          "internalType": "bytes",
          "name": "alertData",
          "type": "bytes"
        }
      ],
      "name": "drainPerAlert",
      "outputs": [],
      "stateMutability": "nonpayable",
      "type": "function"
    },
    {
      "inputs": [
        {
          "internalType": "uint256",
          "name": "subId",
          "type": "uint256"
        }
      ],
      "name": "drainPerCheckIn",
      "outputs": [],
      "stateMutability": "nonpayable",
      "type": "function"
    },
    {
      "inputs": [],
      "name": "evaluator",
      "outputs": [
        {
          "internalType": "address",
          "name": "",
          "type": "address"
        }
      ],
      "stateMutability": "pure",
      "type": "function"
    },
    {
      "inputs": [
        {
          "internalType": "uint256",
          "name": "subId",
          "type": "uint256"
        }
      ],
      "name": "finalizeExpired",
      "outputs": [],
      "stateMutability": "nonpayable",
      "type": "function"
    },
    {
      "inputs": [
        {
          "internalType": "address",
          "name": "agentWallet",
          "type": "address"
        }
      ],
      "name": "getAgentSubscriptions",
      "outputs": [
        {
          "internalType": "uint256[]",
          "name": "",
          "type": "uint256[]"
        }
      ],
      "stateMutability": "view",
      "type": "function"
    },
    {
      "inputs": [
        {
          "internalType": "uint256",
          "name": "subId",
          "type": "uint256"
        }
      ],
      "name": "getBalance",
      "outputs": [
        {
          "internalType": "uint128",
          "name": "",
          "type": "uint128"
        }
      ],
      "stateMutability": "view",
      "type": "function"
    },
    {
      "inputs": [
        {
          "internalType": "address",
          "name": "client",
          "type": "address"
        }
      ],
      "name": "getClientSubscriptions",
      "outputs": [
        {
          "internalType": "uint256[]",
          "name": "",
          "type": "uint256[]"
        }
      ],
      "stateMutability": "view",
      "type": "function"
    },
    {
      "inputs": [
        {
          "internalType": "uint256",
          "name": "subId",
          "type": "uint256"
        }
      ],
      "name": "getStatus",
      "outputs": [
        {
          "internalType": "enum SubscriptionEscrow.Status",
          "name": "",
          "type": "uint8"
        }
      ],
      "stateMutability": "view",
      "type": "function"
    },
    {
      "inputs": [
        {
          "internalType": "uint256",
          "name": "subId",
          "type": "uint256"
        }
      ],
      "name": "getSubscription",
      "outputs": [
        {
          "components": [
            {
              "internalType": "address",
              "name": "client",
              "type": "address"
            },
            {
              "internalType": "uint64",
              "name": "agentId",
              "type": "uint64"
            },
            {
              "internalType": "enum SubscriptionEscrow.Status",
              "name": "status",
              "type": "uint8"
            },
            {
              "internalType": "enum SubscriptionEscrow.IntervalMode",
              "name": "intervalMode",
              "type": "uint8"
            },
            {
              "internalType": "enum SubscriptionEscrow.X402VerificationMode",
              "name": "x402VerificationMode",
              "type": "uint8"
            },
            {
              "internalType": "bool",
              "name": "x402Enabled",
              "type": "bool"
            },
            {
              "internalType": "address",
              "name": "agentWallet",
              "type": "address"
            },
            {
              "internalType": "uint64",
              "name": "lastCheckIn",
              "type": "uint64"
            },
            {
              "internalType": "uint32",
              "name": "intervalSeconds",
              "type": "uint32"
            },
            {
              "internalType": "uint96",
              "name": "checkInRate",
              "type": "uint96"
            },
            {
              "internalType": "uint96",
              "name": "alertRate",
              "type": "uint96"
            },
            {
              "internalType": "uint64",
              "name": "createdAt",
              "type": "uint64"
            },
            {
              "internalType": "uint128",
              "name": "balance",
              "type": "uint128"
            },
            {
              "internalType": "uint128",
              "name": "totalDrained",
              "type": "uint128"
            },
            {
              "internalType": "uint64",
              "name": "pausedAt",
              "type": "uint64"
            },
            {
              "internalType": "uint64",
              "name": "gracePeriodEnds",
              "type": "uint64"
            },
            {
              "internalType": "uint32",
              "name": "gracePeriodSeconds",
              "type": "uint32"
            },
            {
              "internalType": "uint32",
              "name": "proposedInterval",
              "type": "uint32"
            }
          ],
          "internalType": "struct SubscriptionEscrow.Subscription",
          "name": "",
          "type": "tuple"
        }
      ],
      "stateMutability": "view",
      "type": "function"
    },
    {
      "inputs": [
        {
          "internalType": "uint256",
          "name": "subId",
          "type": "uint256"
        },
        {
          "internalType": "uint32",
          "name": "suggestedInterval",
          "type": "uint32"
        }
      ],
      "name": "proposeInterval",
      "outputs": [],
      "stateMutability": "nonpayable",
      "type": "function"
    },
    {
      "inputs": [
        {
          "internalType": "uint256",
          "name": "subId",
          "type": "uint256"
        },
        {
          "internalType": "bytes32",
          "name": "webhookHash",
          "type": "bytes32"
        }
      ],
      "name": "setWebhookHash",
      "outputs": [],
      "stateMutability": "nonpayable",
      "type": "function"
    },
    {
      "inputs": [
        {
          "internalType": "uint256",
          "name": "",
          "type": "uint256"
        }
      ],
      "name": "subscriptionTaskHash",
      "outputs": [
        {
          "internalType": "bytes32",
          "name": "",
          "type": "bytes32"
        }
      ],
      "stateMutability": "view",
      "type": "function"
    },
    {
      "inputs": [
        {
          "internalType": "uint256",
          "name": "",
          "type": "uint256"
        }
      ],
      "name": "subscriptionWebhookHash",
      "outputs": [
        {
          "internalType": "bytes32",
          "name": "",
          "type": "bytes32"
        }
      ],
      "stateMutability": "view",
      "type": "function"
    },
    {
      "inputs": [
        {
          "internalType": "uint256",
          "name": "",
          "type": "uint256"
        }
      ],
      "name": "subscriptionX402Sig",
      "outputs": [
        {
          "internalType": "bytes",
          "name": "",
          "type": "bytes"
        }
      ],
      "stateMutability": "view",
      "type": "function"
    },
    {
      "inputs": [
        {
          "internalType": "uint256",
          "name": "",
          "type": "uint256"
        }
      ],
      "name": "subscriptions",
      "outputs": [
        {
          "internalType": "address",
          "name": "client",
          "type": "address"
        },
        {
          "internalType": "uint64",
          "name": "agentId",
          "type": "uint64"
        },
        {
          "internalType": "enum SubscriptionEscrow.Status",
          "name": "status",
          "type": "uint8"
        },
        {
          "internalType": "enum SubscriptionEscrow.IntervalMode",
          "name": "intervalMode",
          "type": "uint8"
        },
        {
          "internalType": "enum SubscriptionEscrow.X402VerificationMode",
          "name": "x402VerificationMode",
          "type": "uint8"
        },
        {
          "internalType": "bool",
          "name": "x402Enabled",
          "type": "bool"
        },
        {
          "internalType": "address",
          "name": "agentWallet",
          "type": "address"
        },
        {
          "internalType": "uint64",
          "name": "lastCheckIn",
          "type": "uint64"
        },
        {
          "internalType": "uint32",
          "name": "intervalSeconds",
          "type": "uint32"
        },
        {
          "internalType": "uint96",
          "name": "checkInRate",
          "type": "uint96"
        },
        {
          "internalType": "uint96",
          "name": "alertRate",
          "type": "uint96"
        },
        {
          "internalType": "uint64",
          "name": "createdAt",
          "type": "uint64"
        },
        {
          "internalType": "uint128",
          "name": "balance",
          "type": "uint128"
        },
        {
          "internalType": "uint128",
          "name": "totalDrained",
          "type": "uint128"
        },
        {
          "internalType": "uint64",
          "name": "pausedAt",
          "type": "uint64"
        },
        {
          "internalType": "uint64",
          "name": "gracePeriodEnds",
          "type": "uint64"
        },
        {
          "internalType": "uint32",
          "name": "gracePeriodSeconds",
          "type": "uint32"
        },
        {
          "internalType": "uint32",
          "name": "proposedInterval",
          "type": "uint32"
        }
      ],
      "stateMutability": "view",
      "type": "function"
    },
    {
      "inputs": [
        {
          "internalType": "uint256",
          "name": "subId",
          "type": "uint256"
        }
      ],
      "name": "topUp",
      "outputs": [],
      "stateMutability": "payable",
      "type": "function"
    },
    {
      "inputs": [],
      "name": "totalSubscriptions",
      "outputs": [
        {
          "internalType": "uint256",
          "name": "",
          "type": "uint256"
        }
      ],
      "stateMutability": "view",
      "type": "function"
    },
    {
      "inputs": [
        {
          "internalType": "uint256",
          "name": "subId",
          "type": "uint256"
        },
        {
          "internalType": "uint32",
          "name": "newInterval",
          "type": "uint32"
        }
      ],
      "name": "updateInterval",
      "outputs": [],
      "stateMutability": "nonpayable",
      "type": "function"
    }
  ],
  "bytecode": "0x60a03461009457601f6121c338819003918201601f19168301916001600160401b038311848410176100995780849260209460405283398101031261009457516001600160a01b038116908190036100945760016000556001805580156100825760805260405161211390816100b08239608051818181610da50152611d830152f35b60405163d92e233d60e01b8152600490fd5b600080fd5b634e487b7160e01b600052604160045260246000fdfe608080604052600436101561001357600080fd5b60003560e01c9081630d1cfcae14611d65575080631328b87014611d435780631cfd741014611c8a5780631e01043914611c525780632123508314611b255780632d5bbf60146119ee57806346619649146119d057806348a7dc77146118b757806349191e4b146118985780634c49fab81461187a57806350017f3e1461176657806358df01f21461171e5780635c622a0e146116e55780635cccc1641461151757806360fcfd461461149f578063883a0038146114825780639033e13d14610ccb5780639cb93dd114610caf578063a0247c0f14610bb3578063a52e7f7f14610b2b578063a5b3028514610ad5578063b7be4fa414610995578063cea263ab14610969578063d1eafe9f1461093d578063d244a64c146107ee578063d4adbbda146106e2578063dc311dd3146103905763e15501c11461015357600080fd5b3461038b57604036600319011261038b5760043567ffffffffffffffff60243581811161038b57610188903690600401611e60565b610193929192611f8c565b8360005260026020526001600160a01b0390816001604060002001541633036103795784600052600260205260ff60406000205460e01c166004811015610363576001036103515784600052600260205260406000209060028201916bffffffffffffffffffffffff9384845460601c1696871561033f5760038301978854926001600160801b03988985169583871061032d576000978d7f8abd0ed5460894447477d2460b967ca1430b692b0a5e9ab2c454a738674692498a99978f8f96610292608092898f9e8f9e9060019c8f80930316906001600160801b03191617808455861c01166001600160801b0382549181199060801b169116179055565b80875460a01c1695806040519485934216845260606020850152816060850152848401378b8382840101528a6040830152601f80199101168101030190a30154165af16102dd611fe2565b501561031b57541690811515928361030e575b5050506102ff575b6001600055005b61030890612022565b386102f8565b54161090503880806102f0565b6040516312171d8360e31b8152600490fd5b604051631e9acf1760e31b8152600490fd5b60405163e6ffd42b60e01b8152600490fd5b604051634065aaf160e11b8152600490fd5b634e487b7160e01b600052602160045260246000fd5b604051630d9ab13f60e01b8152600490fd5b600080fd5b3461038b57602036600319011261038b5760006102206040516103b281611ec8565b8281528260208201528260408201528260608201528260808201528260a08201528260c08201528260e08201528261010082015282610120820152826101408201528261016082015282610180820152826101a0820152826101c0820152826101e08201528261020082015201526004356000526002602052604060002060405161043c81611ec8565b8154916001600160a01b038316825267ffffffffffffffff8360a01c166020830152600460ff8460e01c1610156103635760ff8360e01c16604083015260ff8360e81c166003811015610363576060830152600260ff8460f01c16101561036357600463ffffffff918460ff6102409660f01c16608086015260f81c151560a085015260018101546001600160a01b03811660c086015267ffffffffffffffff8160a01c1660e086015260e01c61010085015260028101546bffffffffffffffffffffffff81166101208601526bffffffffffffffffffffffff8160601c1661014086015260c01c61016085015260038101546001600160801b03811661018086015260801c6101a0850152015467ffffffffffffffff81166101c084015267ffffffffffffffff8160401c166101e0840152818160801c1661020084015260a01c1661022082015263ffffffff610220604051926001600160a01b03815116845267ffffffffffffffff60208201511660208501526105c460408201516040860190611da7565b6105d660608201516060860190611db4565b6105e860808201516080860190611dc1565b60a0810151151560a08501526001600160a01b0360c08201511660c085015267ffffffffffffffff60e08201511660e085015282610100820151166101008501526bffffffffffffffffffffffff610120820151166101208501526bffffffffffffffffffffffff6101408201511661014085015267ffffffffffffffff610160820151166101608501526001600160801b03610180820151166101808501526001600160801b036101a0820151166101a085015267ffffffffffffffff6101c0820151166101c085015267ffffffffffffffff6101e0820151166101e08501528261020082015116610200850152015116610220820152f35b3461038b5760208060031936011261038b576004356000526005815260406000206040519060009083815461071681611e8e565b928386526001918683821691826000146107cb575050600114610794575b5050505081610744910382611ee5565b604051828193825282519081818401526000935b82851061077b575050604092506000838284010152601f80199101168101030190f35b8481018201518686016040015293810193859350610758565b600090815282812092945092915b8284106107b85750505082010181838580610734565b80548685018601529284019281016107a2565b60ff19168582015294151560051b85019093019450869250879150819050610734565b3461038b57602036600319011261038b5760043561080a611f8c565b8060005260026020526040600020805460ff8160e01c1660048110156103635760020361092b5767ffffffffffffffff600483015460401c164210610919576003820180546fffffffffffffffffffffffffffffffff19811690915560ff60e01b198216600360e01b179092556001600160801b0390911690816108e1575b5060407ffe27622800a0d266a1a40e2de9dc511ae1c022fffde7d0e499f8d05e15580acd918151907f47524143455f455850495245440000000000000000000000000000000000000082526020820152a26001600055005b60008080846001600160a01b038295165af16108fb611fe2565b50156109075782610889565b604051633c31275160e21b8152600490fd5b60405163704e2dd960e11b8152600490fd5b604051636cd6020160e01b8152600490fd5b3461038b57602036600319011261038b5760043560005260046020526020604060002054604051908152f35b3461038b57602036600319011261038b5760043560005260036020526020604060002054604051908152f35b3461038b57604036600319011261038b576004356109b1611e4d565b8160005260026020526001600160a01b036001604060002001541633036103795781600052600260205260ff60406000205460e01c16600481101561036357610ac357816000526002602052604060002060ff815460e81c16600381101561036357600103610ab15763ffffffff82168015610a9f577fd380610b66c8b9485e87d4e5f8b156852edb0a623b8ad294b19639c9ccbc25f192600460209301907fffffffffffffffff00000000ffffffffffffffffffffffffffffffffffffffff77ffffffff000000000000000000000000000000000000000083549260a01b169116179055604051908152a2005b6040516305fabb6160e41b8152600490fd5b604051634f65844560e11b8152600490fd5b604051633ee3282d60e11b8152600490fd5b3461038b57604036600319011261038b57610aee611dce565b6001600160a01b03602435911660005260066020526040600020805482101561038b57602091610b1d91611de4565b90546040519160031b1c8152f35b3461038b5760208060031936011261038b576001600160a01b03610b4d611dce565b1660005260068152604060002090604051908181845491828152019360005281600020916000905b828210610b9c57610b9885610b8c81890382611ee5565b60405191829182611e12565b0390f35b835486529485019460019384019390910190610b75565b3461038b57604036600319011261038b57600435610bcf611e4d565b8160005260026020526001600160a01b036001604060002001541633036103795781600052600260205260ff60406000205460e01c166004811015610363576001036103515781600052600260205260406000209060ff825460e81c16600381101561036357600203610c9d5763ffffffff81168015610a9f57610c9460209260017f3eb6544e1b060c56d10cc9c83c0a4f0d26ce8cd2b816a69c257b11a939ca2c7b9501906001600160e01b0382549163ffffffff60e01b9060e01b169116179055565b604051908152a2005b6040516366303d6160e11b8152600490fd5b3461038b57600036600319011261038b57602060405160008152f35b61014036600319011261038b5763ffffffff604435166044350361038b576064356bffffffffffffffffffffffff808216820361038b5780608435166084350361038b5763ffffffff60a4351660a4350361038b5760c435151560c4350361038b57600260e435101561038b576101043567ffffffffffffffff811161038b57610d59903690600401611e60565b9290923415611457576001600160801b0334116114455760243515611433578282161580611427575b6114155760405163784c53d760e11b81526004803590820152916101a0836024817f00000000000000000000000000000000000000000000000000000000000000006001600160a01b03165afa928315611409576000936112cb575b506080830151156112b9576001600160a01b0360e084015116156112a75760443563ffffffff16611285576001935b60a43563ffffffff8116611247575062015180945b60015495600187016001556003821015610363576001820361123f576000905b6000888152600260205260409020805467ffffffffffffffff60a01b1933166001600160e01b03199091161760043560a01b67ffffffffffffffff60a01b1617815594610edc7fffffffffffffffffffffffff00000000000000000000000000000000000000006001600160a01b0360e08b01511660018901918254161781556001861460001461121f5780546001600160e01b03169055565b85546003870180546fffffffffffffffffffffffffffffffff1916346001600160801b03161790559460048410156103635760843560601b77ffffffffffffffffffffffff000000000000000000000000169116174260c01b7fffffffffffffffff000000000000000000000000000000000000000000000000161760028601556004850180547fffffffffffffffffffffffff00000000ffffffffffffffffffffffffffffffff1660809290921b73ffffffff000000000000000000000000000000001691909117905560e01b60ff60e01b166001600160e01b0390921660e89190911b60ff60e81b16171760c435151560f81b7fff00000000000000000000000000000000000000000000000000000000000000161760e43560f01b60ff60f01b1617905560008381526003602052604090206024359055610124358061120e575b5060c43580611205575b6110b4575b6020836001600160a01b0360e0853360005260068552611053846040600020611f52565b0151166000526007825261106b816040600020611f52565b6040516001600160801b0334168152602435838201523390827fe8418575d6ec5e6041f710844f2e98591134462151153c0878e13db27c8d67db604060043593a4604051908152f35b600560205260406000209067ffffffffffffffff81116111ef576110d88254611e8e565b94601f86116111a7575b60209550600090601f831160011461113357918060e094926001600160a01b039694600092611128575b50508160011b916000199060031b1c19161790555b915061102f565b01359050888061110c565b83600052866000209160005b601f198516811061119057509260e094926001926001600160a01b03979583601f19811610611176575b505050811b019055611121565b0135600019600384901b60f8161c19169055888080611169565b90928860018192868601358155019401910161113f565b826000526020600020601f830160051c810196602084106111e5575b601f0160051c01955b8681106111d957506110e2565b600081556001016111cc565b90965086906111c3565b634e487b7160e01b600052604160045260246000fd5b5080151561102a565b600460205260406000205584611020565b80546001600160e01b031660443560e01b6001600160e01b031916179055565b600190610e42565b610e10908163ffffffff60a4351610600014611264575094610e22565b95905062093a8063ffffffff60a435161115610e225762093a809550610e22565b63ffffffff80604435161460001461129f57600293610e0d565b600093610e0d565b60405163d92e233d60e01b8152600490fd5b60405163ba32abe160e01b8152600490fd5b9092506101a0813d6101a011611401575b816112ea6101a09383611ee5565b8101031261038b5760405190816101a081011067ffffffffffffffff6101a0840111176111ef576101a0820160405261132281611f07565b825261133060208201611f1b565b602083015261134160408201611f2e565b604083015261135260608201611f2e565b60608301526080810151801515810361038b57608083015260a081015160a083015260c081015160c083015261138a60e08201611f07565b60e083015261010061139d818301611f3d565b9083015261012081015163ffffffff8116810361038b576101208301526113c76101408201611f3d565b61014083015261016080820151906001600160801b038216820361038b578301526113f6610180809201611f1b565b908201529185610dde565b3d91506112dc565b6040513d6000823e3d90fd5b604051631310b17360e31b8152600490fd5b50826084351615610d82565b60405163d937d5df60e01b8152600490fd5b604051632ad907fb60e01b8152600490fd5b6040517fff97b861000000000000000000000000000000000000000000000000000000008152600490fd5b3461038b57600036600319011261038b576020604051610e108152f35b3461038b5760208060031936011261038b576001600160a01b036114c1611dce565b1660005260078152604060002090604051908181845491828152019360005281600020916000905b82821061150057610b9885610b8c81890382611ee5565b8354865294850194600193840193909101906114e9565b3461038b57602036600319011261038b57600435611533611f8c565b8060005260026020526001600160a01b03806001604060002001541633036103795781600052600260205260ff60406000205460e01c1660048110156103635760010361035157816000526002602052604060002090600182019081549167ffffffffffffffff92838160e01c9160a01c160142106116d35760028401936bffffffffffffffffffffffff93848654169283156116c15760038301938454906001600160801b03968783169382851061032d576000968c7faca8409c75ae20e54532e907bdb68ef9d415061069c6cb09b5f1dbb02e7f97eb60408a9961164c8d8f8a8e9d9c828f9e83900316906001600160801b0319161780845560801c01166001600160801b0382549181199060801b169116179055565b8042169461167d86889067ffffffffffffffff60a01b1967ffffffffffffffff60a01b83549260a01b169116179055565b5460a01c16938151908882526020820152a354165af161169b611fe2565b501561031b575416915416116116b2576001600055005b6116bb90612022565b806102f8565b604051630e43d21360e41b8152600490fd5b60405163085de62560e01b8152600490fd5b3461038b57602036600319011261038b576004356000526002602052602060ff60406000205460e01c1661171c6040518092611da7565bf35b3461038b57604036600319011261038b57611737611dce565b6001600160a01b03602435911660005260076020526040600020805482101561038b57602091610b1d91611de4565b602036600319011261038b5760043561177d611f8c565b3415611868576001600160801b0380341161144557816000526002602052604060002080549160ff8360e01c16906004821015918261036357600181141580611859575b611847576003840192835492803416818516011693846001600160801b0319809516179055610363576002146117f8576001600055005b60046020937fcd6bbb0e6bc28877dacd68a58b120122a2608b94a540b0b03503b59c8777c4019560ff60e01b19600160e01b911617815501908154169055604051908152a280808080806102f8565b6040516307a92f1960e51b8152600490fd5b506000925060028114156117c1565b604051637c946ed760e01b8152600490fd5b3461038b57600036600319011261038b576020604051620151808152f35b3461038b57600036600319011261038b57602060405163ffffffff8152f35b3461038b57602036600319011261038b576004358060005260026020526001600160a01b036040600020541633036119be5780600052600260205260ff60406000205460e01c16600481101561036357610ac357806000526002602052604060002060ff815460e81c16600381101561036357600103610ab15763ffffffff600482015460a01c169081156119ac576001810180546001600160e01b031960e094851b166001600160e01b039091161790819055815460ff60e01b1916600160e01b17909155604051911c81527ffb627536918a57bef68c076ca166d6f39ea6dcf6bcbf4c7864650f3b0b34de5790602090a2005b604051630dc5fde960e01b8152600490fd5b604051630836f21d60e21b8152600490fd5b3461038b57600036600319011261038b57602060405162093a808152f35b3461038b57602036600319011261038b57600435600052600260205261024060406000208054906001810154916002820154916004600382015491015492604051946001600160a01b03808516875267ffffffffffffffff94858160a01c166020890152611a656040890160ff8360e01c16611da7565b611a786060890160ff8360e81c16611db4565b611a8b6080890160ff8360f01c16611dc1565b60f81c151560a0880152811660c0870152838160a01c1660e087015260e01c6101008601526bffffffffffffffffffffffff8082166101208701528160601c1661014086015260c01c6101608501526001600160801b03811661018085015260801c6101a08401528082166101c08401528160401c166101e083015263ffffffff90818160801c1661020084015260a01c16610220820152f35b3461038b57602036600319011261038b57600435611b41611f8c565b8060005260026020526001600160a01b03806040600020541633036119be57816000526002602052604060002090815460ff8160e01c16600481101561036357600314611c40576003830180546fffffffffffffffffffffffffffffffff19811690915560ff60e01b198216600360e01b179093556001600160801b039092169182611c20575b837ffe27622800a0d266a1a40e2de9dc511ae1c022fffde7d0e499f8d05e15580acd6040858151907f434c49454e545f43414e43454c4c45440000000000000000000000000000000082526020820152a26001600055005b6000808481948294165af1611c33611fe2565b5015610907578280611bc8565b6040516354e3762560e01b8152600490fd5b3461038b57602036600319011261038b57600435600052600260205260206001600160801b0360036040600020015416604051908152f35b3461038b57604036600319011261038b5760043560243581600052600260205260406000208054906001600160a01b038083163314159182611d31575b5050611d1f5760e01c60ff16600481101561036357600314611c405760207f687b8d66ad629193064e46b85f516470d49fd6c980380d950b9fe8d43cd2d06e91836000526004825280604060002055604051908152a2005b60405163ea8e4eb560e01b8152600490fd5b60019192500154163314158480611cc7565b3461038b57600036600319011261038b57602060001960015401604051908152f35b3461038b57600036600319011261038b576020906001600160a01b037f0000000000000000000000000000000000000000000000000000000000000000168152f35b9060048210156103635752565b9060038210156103635752565b9060028210156103635752565b600435906001600160a01b038216820361038b57565b8054821015611dfc5760005260206000200190600090565b634e487b7160e01b600052603260045260246000fd5b6020908160408183019282815285518094520193019160005b828110611e39575050505090565b835185529381019392810192600101611e2b565b6024359063ffffffff8216820361038b57565b9181601f8401121561038b5782359167ffffffffffffffff831161038b576020838186019501011161038b57565b90600182811c92168015611ebe575b6020831014611ea857565b634e487b7160e01b600052602260045260246000fd5b91607f1691611e9d565b610240810190811067ffffffffffffffff8211176111ef57604052565b90601f8019910116810190811067ffffffffffffffff8211176111ef57604052565b51906001600160a01b038216820361038b57565b519065ffffffffffff8216820361038b57565b519061ffff8216820361038b57565b519067ffffffffffffffff8216820361038b57565b8054680100000000000000008110156111ef57611f7491600182018155611de4565b819291549060031b91821b91600019901b1916179055565b600260005414611f9d576002600055565b60405162461bcd60e51b815260206004820152601f60248201527f5265656e7472616e637947756172643a207265656e7472616e742063616c6c006044820152606490fd5b3d1561201d573d9067ffffffffffffffff82116111ef5760405191612011601f8201601f191660200184611ee5565b82523d6000602084013e565b606090565b8060005260026020526040600020600160e11b60ff60e01b19825416178155600467ffffffffffffffff42169101908154906fffffffffffffffff000000000000000063ffffffff8267ffffffffffffffff1985161760801c16820160401b16916001600160801b031916171790557fc06ed47dce60afa6e4cc1aa51a2e476e184fcc84a1dbbf5672a49f56226ff25860206040517f494e53554646494349454e545f42414c414e43450000000000000000000000008152a256fea26469706673582212204f1a677b4294dc70154dfbcafc69fcb98802a4c36c7d6999e1189036b8eba0da64736f6c63430008140033",
  "linkReferences": {},
  "deployedLinkReferences": {}
}