{
  "_format": "hh-sol-artifact-1",
  "contractName": "UserRegistry",
  "sourceName": "src/UserRegistry.sol",
  "abi": [
    {
      "anonymous": false,
      "inputs": [
        {
          "indexed": true,
          "internalType": "address",
          "name": "user",
          "type": "address"
        },
        {
          "indexed": false,
          "internalType": "enum UserRegistry.Role",
          "name": "role",
          "type": "uint8"
        },
        {
          "indexed": false,
          "internalType": "uint256",
          "name": "registeredAt",
          "type": "uint256"
        }
      ],
      "name": "UserRegistered",
      "type": "event"
    },
    {
      "inputs": [
        {
          "internalType": "address",
          "name": "user",
          "type": "address"
        }
      ],
      "name": "getUserRole",
      "outputs": [
        {
          "internalType": "enum UserRegistry.Role",
          "name": "",
          "type": "uint8"
        }
      ],
      "stateMutability": "view",
      "type": "function"
    },
    {
      "inputs": [
        {
          "internalType": "address",
          "name": "user",
          "type": "address"
        }
      ],
      "name": "isRegistered",
      "outputs": [
        {
          "internalType": "bool",
          "name": "",
          "type": "bool"
        }
      ],
      "stateMutability": "view",
      "type": "function"
    },
    {
      "inputs": [
        {
          "internalType": "enum UserRegistry.Role",
          "name": "role",
          "type": "uint8"
        }
      ],
      "name": "registerUser",
      "outputs": [],
      "stateMutability": "nonpayable",
      "type": "function"
    },
    {
      "inputs": [
        {
          "internalType": "address",
          "name": "",
          "type": "address"
        }
      ],
      "name": "userRoles",
      "outputs": [
        {
          "internalType": "enum UserRegistry.Role",
          "name": "",
          "type": "uint8"
        }
      ],
      "stateMutability": "view",
      "type": "function"
    }
  ],
  "bytecode": "0x608080604052346100165761029c908161001c8239f35b600080fdfe60806040908082526004918236101561001757600080fd5b600091823560e01c90816302b8c8cd1461010f5750806327820851146100c057806374d5e100146100c05763c3c5a5471461005157600080fd5b346100bc5760203660031901126100bc57823573ffffffffffffffffffffffffffffffffffffffff81168091036100b85782528160205260ff81832054169160038310156100a55760208383519015158152f35b634e487b7160e01b815260218452602490fd5b8280fd5b5080fd5b5082346100b85760203660031901126100b8573573ffffffffffffffffffffffffffffffffffffffff81168091036100b85760ff828461010d936020965280865220541691518092610243565bf35b929390503461023f576020908160031936011261023b5780359360038510156102375784156101f8575033855284825260ff838620541660038110156101e5576101a45750907feea238307e4577ec1b8645d63505c2d57767cfc074bb5ab579a615525f07a2579133855284815281852060ff1981541660ff861617905561019982518095610243565b42908401523392a280f35b915162461bcd60e51b815291820181905260248201527f5573657252656769737472793a20616c726561647920726567697374657265646044820152606490fd5b634e487b7160e01b865260218252602486fd5b8260649262461bcd60e51b8352820152601a60248201527f5573657252656769737472793a20696e76616c696420726f6c650000000000006044820152fd5b8580fd5b8480fd5b8380fd5b9060038210156102505752565b634e487b7160e01b600052602160045260246000fdfea26469706673582212208bfe5c3c33267db5ad168914b144165fed30e3506956fcaba8320c43ee9bd3f264736f6c63430008140033",
  "linkReferences": {},
  "deployedLinkReferences": {}
}